{
	"data": {
		"bytecode": {
			"linkReferences": {},
			"object": "60806040523480156200001157600080fd5b50604051620035f2380380620035f2833981810160405260408110156200003757600080fd5b50805160209091015160006200004c620001ef565b600080546001600160a01b0319166001600160a01b0383169081178255604051929350917f8be0079c531659141344cd1fd0a4f28419497f9722a3daafe3b4186f6b6457e0908290a350604051620000a490620001f3565b604051809103906000f080158015620000c1573d6000803e3d6000fd5b50600180546001600160a01b0319166001600160a01b0392909216919091179055604051620000f09062000200565b604051809103906000f0801580156200010d573d6000803e3d6000fd5b50600280546001600160a01b0319166001600160a01b039283161790558216620001695760405162461bcd60e51b815260040180806020018281038252603a815260200180620035b8603a913960400191505060405180910390fd5b6001600160a01b038116620001b05760405162461bcd60e51b8152600401808060200182810382526040815260200180620035786040913960400191505060405180910390fd5b600380546001600160a01b039384166001600160a01b031991821617909155600480549290931691161790556007805460ff1916600a1790556200020e565b3390565b60d38062002d2e83390190565b6107778062002e0183390190565b612b10806200021e6000396000f3fe60806040526004361061012a5760003560e01c80638da5cb5b116100ab578063c0f4ed311161006f578063c0f4ed311461044b578063c8db69621461047d578063cafdcad0146104af578063cce7ec13146104c4578063e2982c21146104f0578063f2fde38b146105235761012a565b80638da5cb5b14610348578063916c03ba1461037957806393d10cea146103c4578063955a5a76146103fd578063a334c844146104365761012a565b806348626b90116100f257806348626b901461025d578063508c1dbd1461028a5780636fe9f44c146102c9578063715018a6146102f45780637598fdb3146103095761012a565b80630d7d703f1461012f57806314df85e914610164578063176ab440146101be57806331b3eb94146101f157806339b6b1e514610224575b600080fd5b34801561013b57600080fd5b506101626004803603602081101561015257600080fd5b50356001600160a01b0316610556565b005b34801561017057600080fd5b5061019d6004803603604081101561018757600080fd5b506001600160a01b03813516906020013561061f565b604080519283526001600160a01b0390911660208301528051918290030190f35b3480156101ca57600080fd5b50610162600480360360208110156101e157600080fd5b50356001600160a01b0316610650565b3480156101fd57600080fd5b506101626004803603602081101561021457600080fd5b50356001600160a01b0316610719565b34801561023057600080fd5b506101626004803603604081101561024757600080fd5b506001600160a01b038135169060200135610782565b34801561026957600080fd5b506101626004803603602081101561028057600080fd5b503560ff16610836565b34801561029657600080fd5b50610162600480360360608110156102ad57600080fd5b506001600160a01b0381351690602081013590604001356108ae565b3480156102d557600080fd5b506102de6109ab565b6040805160ff9092168252519081900360200190f35b34801561030057600080fd5b506101626109b4565b34801561031557600080fd5b506101626004803603606081101561032c57600080fd5b506001600160a01b038135169060208101359060400135610a60565b34801561035457600080fd5b5061035d610ace565b604080516001600160a01b039092168252519081900360200190f35b34801561038557600080fd5b506103b26004803603604081101561039c57600080fd5b506001600160a01b038135169060200135610add565b60408051918252519081900360200190f35b3480156103d057600080fd5b506103b2600480360360408110156103e757600080fd5b506001600160a01b038135169060200135610b2f565b34801561040957600080fd5b506101626004803603604081101561042057600080fd5b506001600160a01b038135169060200135610c17565b34801561044257600080fd5b5061035d6110c7565b6101626004803603606081101561046157600080fd5b508035906001600160a01b0360208201351690604001356110d6565b6101626004803603606081101561049357600080fd5b506001600160a01b0381351690602081013590604001356113c1565b3480156104bb57600080fd5b5061035d61142f565b610162600480360360408110156104da57600080fd5b506001600160a01b03813516906020013561143e565b3480156104fc57600080fd5b506103b26004803603602081101561051357600080fd5b50356001600160a01b03166119c1565b34801561052f57600080fd5b506101626004803603602081101561054657600080fd5b50356001600160a01b0316611a44565b61055e611b46565b6001600160a01b031661056f610ace565b6001600160a01b0316146105b8576040805162461bcd60e51b81526020600482018190526024820152600080516020612a79833981519152604482015290519081900360640190fd5b6001600160a01b0381166105fd5760405162461bcd60e51b815260040180806020018281038252604d81526020018061272e604d913960600191505060405180910390fd5b600480546001600160a01b0319166001600160a01b0392909216919091179055565b6001600160a01b03918216600090815260066020908152604080832093835292905220600181015490549092911690565b610658611b46565b6001600160a01b0316610669610ace565b6001600160a01b0316146106b2576040805162461bcd60e51b81526020600482018190526024820152600080516020612a79833981519152604482015290519081900360640190fd5b6001600160a01b0381166106f75760405162461bcd60e51b81526004018080602001828103825260458152602001806129f26045913960600191505060405180910390fd5b600380546001600160a01b0319166001600160a01b0392909216919091179055565b600254604080516351cff8d960e01b81526001600160a01b038481166004830152915191909216916351cff8d991602480830192600092919082900301818387803b15801561076757600080fd5b505af115801561077b573d6000803e3d6000fd5b5050505050565b61078d338383611b4a565b6107c85760405162461bcd60e51b815260040180806020018281038252603981526020018061295f6039913960400191505060405180910390fd5b6107d28282611b7d565b6001600160a01b038216600081815260066020908152604080832085845282529182902060010154825190815290810184905281513393927f99a3761c98d7a0c3980cbeb3d8009b315a463f8020b43ca1e6901611b06547f9928290030190a35050565b61083e611b46565b6001600160a01b031661084f610ace565b6001600160a01b031614610898576040805162461bcd60e51b81526020600482018190526024820152600080516020612a79833981519152604482015290519081900360640190fd5b6007805460ff191660ff92909216919091179055565b6108b88383611c08565b6108c28383611d3f565b80610919576108d18383611e11565b604080518281526020810184905281516001600160a01b038616927fb0b0e4adf2724af8f1646eae3a16f45d696c9334594729d09bf192da1f783871928290030190a26109a6565b60408051808201825233815260208082018481526001600160a01b038781166000818152600585528681208982528552869020945185546001600160a01b031916921691909117845590516001909301929092558251848152908101859052825191927fb0b0e4adf2724af8f1646eae3a16f45d696c9334594729d09bf192da1f78387192918290030190a25b505050565b60075460ff1681565b6109bc611b46565b6001600160a01b03166109cd610ace565b6001600160a01b031614610a16576040805162461bcd60e51b81526020600482018190526024820152600080516020612a79833981519152604482015290519081900360640190fd5b600080546040516001600160a01b03909116907f8be0079c531659141344cd1fd0a4f28419497f9722a3daafe3b4186f6b6457e0908390a3600080546001600160a01b0319169055565b6001600160a01b03831660009081526006602090815260408083208584529091529020600101548114610ac45760405162461bcd60e51b81526004018080602001828103825260348152602001806128f96034913960400191505060405180910390fd5b6109a68383610c17565b6000546001600160a01b031690565b6000610ae98383611c08565b610af38383611e64565b15610b2557506001600160a01b0382166000908152600560209081526040808320848452909152902060010154610b29565b5060005b92915050565b6000610b3b8383611c08565b610b458383611e64565b15610b25576003546001600160a01b0384811660009081526005602090815260408083208784528252918290206001015482516361fe24a960e11b815260048101919091529151610c1094939093169263c3fc4952926024808201939291829003018186803b158015610bb757600080fd5b505afa158015610bcb573d6000803e3d6000fd5b505050506040513d6020811015610be157600080fd5b50516001600160a01b038516600090815260056020908152604080832087845290915290206001015490611f06565b9050610b29565b610c218282611c08565b610c2b8282611d3f565b610c358282611f60565b610c705760405162461bcd60e51b815260040180806020018281038252603281526020018061292d6032913960400191505060405180910390fd5b610c786126d8565b506001600160a01b038281166000908152600660209081526040808320858452825291829020825160608101845281549485168152600160a01b90940460ff16918401919091526001015490820152610cd18383611e11565b610cdb8383611f8a565b805160408051632142170760e11b81523360048201526001600160a01b03928316602482015260448101859052905185928316916342842e0e91606480830192600092919082900301818387803b158015610d3557600080fd5b505af1158015610d49573d6000803e3d6000fd5b505050506000610d5f610d5a610ace565b611ffe565b6040808501516003548251631446f21360e21b81526001600160a01b038a81166004830152602482018a90529351949550610fe79492939091169163511bc84c91604480820192602092909190829003018186803b158015610dc057600080fd5b505afa158015610dd4573d6000803e3d6000fd5b505050506040513d6020811015610dea57600080fd5b505160035460408051638347592160e01b815290519215926001600160a01b0390921691638347592191600480820192602092909190829003018186803b158015610e3457600080fd5b505afa158015610e48573d6000803e3d6000fd5b505050506040513d6020811015610e5e57600080fd5b50516004805460408051637c0329f760e01b81526001600160a01b038d811694820194909452602481018c905290519290911691637c0329f791604480820192602092909190829003018186803b158015610eb857600080fd5b505afa158015610ecc573d6000803e3d6000fd5b505050506040513d6020811015610ee257600080fd5b50516003546040805163b28a7bad60e01b81526001600160a01b038d811660048301529151919092169163b28a7bad916024808301926020929190829003018186803b158015610f3157600080fd5b505afa158015610f45573d6000803e3d6000fd5b505050506040513d6020811015610f5b57600080fd5b50516004805460408051632e17b5f960e21b81526001600160a01b038f811694820194909452602481018e9052905133938b93169163b85ed7e4916044808301926020929190829003018186803b158015610fb557600080fd5b505afa158015610fc9573d6000803e3d6000fd5b505050506040513d6020811015610fdf57600080fd5b505189612001565b60035460408051635a3c652d60e01b81526001600160a01b038881166004830152602482018890526001604483015291519190921691635a3c652d91606480830192600092919082900301818387803b15801561104357600080fd5b505af1158015611057573d6000803e3d6000fd5b50505050336001600160a01b031683600001516001600160a01b0316866001600160a01b03167f2a9d06eec42acd217a17785dbec90b8b4f01a93ecd8c127edd36bfccf239f8b6866040015188604051808381526020018281526020019250505060405180910390a45050505050565b6003546001600160a01b031681565b60008311611124576040805162461bcd60e51b81526020600482015260166024820152753134b21d1d21b0b73737ba103134b21018102bb2b49760511b604482015290519081900360640190fd5b6001600160a01b03821660009081526006602090815260408083208484529091529020600101548084118015611182575060075461117e906111779060649061117190859060ff166121d3565b9061222c565b8290611f06565b8410155b6111bd5760405162461bcd60e51b8152600401808060200182810382526042815260200180612a996042913960600191505060405180910390fd5b600354604080516361fe24a960e11b8152600481018790529051600092611243926001600160a01b039091169163c3fc495291602480820192602092909190829003018186803b15801561121057600080fd5b505afa158015611224573d6000803e3d6000fd5b505050506040513d602081101561123a57600080fd5b50518690611f06565b90503481146112835760405162461bcd60e51b81526004018080602001828103825260338152602001806128816033913960400191505060405180910390fd5b60008490506000816001600160a01b0316636352211e866040518263ffffffff1660e01b81526004018082815260200191505060206040518083038186803b1580156112ce57600080fd5b505afa1580156112e2573d6000803e3d6000fd5b505050506040513d60208110156112f857600080fd5b505190506001600160a01b03811633141561135a576040805162461bcd60e51b815260206004820152601c60248201527f6269643a3a4269646465722063616e6e6f74206265206f776e65722e00000000604482015290519081900360640190fd5b6113648686611b7d565b61137087338888612293565b6040805188815260208101879052815133926001600160a01b038a16927fd21fbaad97462831ad0c216f300fefb33a10b03bb18bb70ed668562e88d15d53929081900390910190a350505050505050565b6001600160a01b038316600090815260056020908152604080832085845290915290206001015481146114255760405162461bcd60e51b81526004018080602001828103825260338152602001806127cd6033913960400191505060405180910390fd5b6109a6838361143e565b6004546001600160a01b031681565b6114488282611c08565b6114528282611e64565b61148d5760405162461bcd60e51b81526004018080602001828103825260458152602001806128b46045913960600191505060405180910390fd5b6114956126f8565b506001600160a01b038083166000908152600560209081526040808320858452825291829020825180840190935280549093168252600190920154918101829052906115125760405162461bcd60e51b81526004018080602001828103825260298152602001806128586029913960400191505060405180910390fd5b3461151d8484610b2f565b146115595760405162461bcd60e51b81526004018080602001828103825260328152602001806128266032913960400191505060405180910390fd5b60008390506000816001600160a01b0316636352211e856040518263ffffffff1660e01b81526004018082815260200191505060206040518083038186803b1580156115a457600080fd5b505afa1580156115b8573d6000803e3d6000fd5b505050506040513d60208110156115ce57600080fd5b505190506115dc8585611e11565b60408051632142170760e11b81526001600160a01b038381166004830152336024830152604482018790529151918416916342842e0e9160648082019260009290919082900301818387803b15801561163457600080fd5b505af1158015611648573d6000803e3d6000fd5b50505050611657338686611b4a565b15611666576116668585611b7d565b6000611673610d5a610ace565b60208086015160035460408051631446f21360e21b81526001600160a01b038c81166004830152602482018c905291519596506118e4959394919092169263511bc84c926044808201939291829003018186803b1580156116d357600080fd5b505afa1580156116e7573d6000803e3d6000fd5b505050506040513d60208110156116fd57600080fd5b505160035460408051638347592160e01b815290519215926001600160a01b0390921691638347592191600480820192602092909190829003018186803b15801561174757600080fd5b505afa15801561175b573d6000803e3d6000fd5b505050506040513d602081101561177157600080fd5b50516004805460408051637c0329f760e01b81526001600160a01b038e811694820194909452602481018d905290519290911691637c0329f791604480820192602092909190829003018186803b1580156117cb57600080fd5b505afa1580156117df573d6000803e3d6000fd5b505050506040513d60208110156117f557600080fd5b50516003546040805163b28a7bad60e01b81526001600160a01b038e811660048301529151919092169163b28a7bad916024808301926020929190829003018186803b15801561184457600080fd5b505afa158015611858573d6000803e3d6000fd5b505050506040513d602081101561186e57600080fd5b505161187988611ffe565b87600460009054906101000a90046001600160a01b03166001600160a01b031663b85ed7e48f8f6040518363ffffffff1660e01b815260040180836001600160a01b031681526020018281526020019250505060206040518083038186803b158015610fb557600080fd5b60035460408051635a3c652d60e01b81526001600160a01b038981166004830152602482018990526001604483015291519190921691635a3c652d91606480830192600092919082900301818387803b15801561194057600080fd5b505af1158015611954573d6000803e3d6000fd5b50505050816001600160a01b0316336001600160a01b0316876001600160a01b03167f5764dbcef91eb6f946584f4ea671217c686fa7e858ce4f9f42d08422b86556a9876020015189604051808381526020018281526020019250505060405180910390a4505050505050565b600254604080516371d4ed8d60e11b81526001600160a01b0384811660048301529151600093929092169163e3a9db1a91602480820192602092909190829003018186803b158015611a1257600080fd5b505afa158015611a26573d6000803e3d6000fd5b505050506040513d6020811015611a3c57600080fd5b505192915050565b611a4c611b46565b6001600160a01b0316611a5d610ace565b6001600160a01b031614611aa6576040805162461bcd60e51b81526020600482018190526024820152600080516020612a79833981519152604482015290519081900360640190fd5b6001600160a01b038116611aeb5760405162461bcd60e51b81526004018080602001828103825260268152602001806128006026913960400191505060405180910390fd5b600080546040516001600160a01b03808516939216917f8be0079c531659141344cd1fd0a4f28419497f9722a3daafe3b4186f6b6457e091a3600080546001600160a01b0319166001600160a01b0392909216919091179055565b3390565b6001600160a01b0382811660009081526006602090815260408083208584529091529020548116908416145b9392505050565b611b856126d8565b506001600160a01b03828116600090815260066020908152604080832085845282529182902082516060810184528154948516808252600160a01b90950460ff1692810192909252600101549181019190915290611be35750611c04565b611bed8383611f8a565b6109a68160200151826000015183604001516123f6565b5050565b60008290506000816001600160a01b0316636352211e846040518263ffffffff1660e01b81526004018082815260200191505060206040518083038186803b158015611c5357600080fd5b505afa158015611c67573d6000803e3d6000fd5b505050506040513d6020811015611c7d57600080fd5b50516040805163e985e9c560e01b81526001600160a01b03808416600483015230602483015291519293509084169163e985e9c591604480820192602092909190829003018186803b158015611cd257600080fd5b505afa158015611ce6573d6000803e3d6000fd5b505050506040513d6020811015611cfc57600080fd5b5051611d395760405162461bcd60e51b8152600401808060200182810382526021815260200180612a586021913960400191505060405180910390fd5b50505050565b604080516331a9108f60e11b8152600481018390529051839133916001600160a01b03841691636352211e916024808301926020929190829003018186803b158015611d8a57600080fd5b505afa158015611d9e573d6000803e3d6000fd5b505050506040513d6020811015611db457600080fd5b50516001600160a01b0316146109a6576040805162461bcd60e51b815260206004820152601e60248201527f73656e646572206d7573742062652074686520746f6b656e206f776e65720000604482015290519081900360640190fd5b604080518082018252600080825260208083018281526001600160a01b0396871683526005825284832095835294905291909120905181546001600160a01b031916931692909217825551600190910155565b6001600160a01b03808316600081815260056020908152604080832086845282528083205481516331a9108f60e11b8152600481018890529151939588959116939092636352211e9260248082019391829003018186803b158015611ec857600080fd5b505afa158015611edc573d6000803e3d6000fd5b505050506040513d6020811015611ef257600080fd5b50516001600160a01b031614949350505050565b600082820183811015611b76576040805162461bcd60e51b815260206004820152601b60248201527f536166654d6174683a206164646974696f6e206f766572666c6f770000000000604482015290519081900360640190fd5b6001600160a01b039182166000908152600660209081526040808320938352929052205416151590565b60408051606081018252600080825260208083018281528385018381526001600160a01b03978816845260068352858420968452959091529290209051815492516001600160a01b031990931694169390931760ff60a01b1916600160a01b60ff9092169190910217825551600190910155565b90565b60648760ff1611156120445760405162461bcd60e51b81526004018080602001828103825260328152602001806129986032913960400191505060405180910390fd5b606461205660ff888116908816611f06565b11156120935760405162461bcd60e51b81526004018080602001828103825260288152602001806129ca6028913960400191505060405180910390fd5b6001600160a01b038416158015906120b357506001600160a01b03811615155b80156120c757506001600160a01b03831615155b80156120db57506001600160a01b03821615155b6121165760405162461bcd60e51b815260040180806020018281038252602981526020018061277b6029913960400191505060405180910390fd5b61211e61270f565b6121288a8961245e565b8152612135898b89612472565b6020820152612145898b88612494565b6040820181905260208201516121679190612161908d906124b7565b906124b7565b606082015280511561218557612185848260005b6020020151612514565b60208101511561219b5761219b8382600161217b565b6040810151156121b1576121b18282600261217b565b6060810151156121c7576121c78582600361217b565b50505050505050505050565b6000826121e257506000610b29565b828202828482816121ef57fe5b0414611b765760405162461bcd60e51b8152600401808060200182810382526021815260200180612a376021913960400191505060405180910390fd5b6000808211612282576040805162461bcd60e51b815260206004820152601a60248201527f536166654d6174683a206469766973696f6e206279207a65726f000000000000604482015290519081900360640190fd5b81838161228b57fe5b049392505050565b6001600160a01b0383166122ee576040805162461bcd60e51b815260206004820152601b60248201527f4269646465722063616e6e6f74206265203020616464726573732e0000000000604482015290519081900360640190fd5b6040518060600160405280846001600160a01b03168152602001600360009054906101000a90046001600160a01b03166001600160a01b031663834759216040518163ffffffff1660e01b815260040160206040518083038186803b15801561235657600080fd5b505afa15801561236a573d6000803e3d6000fd5b505050506040513d602081101561238057600080fd5b505160ff90811682526020918201969096526001600160a01b03938416600090815260068252604080822094825293825283902082518154928401516001600160a01b031990931695169490941760ff60a01b1916600160a01b9190961602949094178255929092015160019092019190915550565b6001600160a01b03821661243b5760405162461bcd60e51b81526004018080602001828103825260298152602001806127a46029913960400191505060405180910390fd5b80156109a6576109a682612459612452848761245e565b8490611f06565b612514565b6000611b7660646111718560ff86166121d3565b6000831561248257506000611b76565b61248c838361245e565b949350505050565b600083156124ad576124a6838361245e565b9050611b76565b5060009392505050565b60008282111561250e576040805162461bcd60e51b815260206004820152601e60248201527f536166654d6174683a207375627472616374696f6e206f766572666c6f770000604482015290519081900360640190fd5b50900390565b60006125208383612575565b90508061253157612531838361266a565b6040805183815290516001600160a01b038516917fd88d14434dd4c47d8cd227a931f475ddfaa46a219994f6c5094bd04d940c3c1b919081900360200190a2505050565b600154604080516001600160a01b0385811660248084019190915283518084039091018152604490920183526020820180516001600160e01b0316630fa50dc960e31b178152925182516000958695606095949091169388939092909182918083835b602083106125f75780518252601f1990920191602091820191016125d8565b6001836020036101000a03801982511681845116808217855250505050505090500191505060006040518083038185875af1925050503d8060008114612659576040519150601f19603f3d011682016040523d82523d6000602084013e61265e565b606091505b50909695505050505050565b6002546040805163f340fa0160e01b81526001600160a01b0385811660048301529151919092169163f340fa0191849160248082019260009290919082900301818588803b1580156126bb57600080fd5b505af11580156126cf573d6000803e3d6000fd5b50505050505050565b604080516060810182526000808252602082018190529181019190915290565b604080518082019091526000808252602082015290565b6040518060800160405280600490602082028036833750919291505056fe7365744945524337323143726561746f72526f79616c74793a3a43616e6e6f742068617665206e756c6c206164647265737320666f72205f6945524337323143726561746f72526f79616c74797061796f75743a3a6e6f207061796565732063616e20626520746865207a65726f2061646472657373726566756e643a3a6e6f207061796565732063616e20626520746865207a65726f2061646472657373736166654275793a3a507572636861736520616d6f756e74206d75737420657175616c20657870656374656420616d6f756e744f776e61626c653a206e6577206f776e657220697320746865207a65726f20616464726573736275793a3a4d7573742070757263686173652074686520746f6b656e20666f722074686520636f72726563742070726963656275793a3a546f6b656e7320707269636564206174203020617265206e6f7420666f722073616c652e6269643a3a4d7573742070757263686173652074686520746f6b656e20666f722074686520636f72726563742070726963652e6275793a3a43757272656e7420746f6b656e206f776e6572206d7573742062652074686520706572736f6e20746f206861766520746865206c61746573742070726963652e736166654163636570744269643a3a42696420616d6f756e74206d75737420657175616c20657870656374656420616d6f756e746163636570744269643a3a43616e6e6f7420616363657074206120626964207768656e207468657265206973206e6f6e652e63616e63656c4269643a3a43616e6e6f742063616e63656c2061206269642069662073656e646572206861736e2774206d616465206f6e652e7061796f75743a3a6d61726b6574706c6163652070657263656e746167652063616e6e6f742062652061626f7665203130307061796f75743a3a70657263656e74616765732063616e6e6f7420676f206265796f6e64203130307365744d61726b6574706c61636553657474696e67733a3a43616e6e6f742068617665206e756c6c206164647265737320666f72205f694d61726b657453657474696e6773536166654d6174683a206d756c7469706c69636174696f6e206f766572666c6f776f776e6572206d757374206861766520617070726f76656420636f6e74726163744f776e61626c653a2063616c6c6572206973206e6f7420746865206f776e65726269643a3a4d75737420706c6163652068696768657220626964207468616e206578697374696e6720626964202b206d696e696d756d2070657263656e746167652ea26469706673582212204da446bca55a6a3df3873952c1d33433f6641abdaf13ca1a2f418997546d0c7564736f6c634300060c0033608060405234801561001057600080fd5b5060b48061001f6000396000f3fe608060405260043610601c5760003560e01c80637d286e48146021575b600080fd5b604460048036036020811015603557600080fd5b50356001600160a01b03166046565b005b6040516001600160a01b038216903480156108fc02916000818181858888f19350505050158015607a573d6000803e3d6000fd5b505056fea2646970667358221220719e250a6bc41315aaab320b499be8ea2de1ab5b8a3481d6b4b90060fd82ef6e64736f6c634300060c0033608060405234801561001057600080fd5b50600061001b61006a565b600080546001600160a01b0319166001600160a01b0383169081178255604051929350917f8be0079c531659141344cd1fd0a4f28419497f9722a3daafe3b4186f6b6457e0908290a35061006e565b3390565b6106fa8061007d6000396000f3fe6080604052600436106100555760003560e01c806351cff8d91461005a578063715018a61461008f5780638da5cb5b146100a4578063e3a9db1a146100d5578063f2fde38b1461011a578063f340fa011461014d575b600080fd5b34801561006657600080fd5b5061008d6004803603602081101561007d57600080fd5b50356001600160a01b0316610173565b005b34801561009b57600080fd5b5061008d610240565b3480156100b057600080fd5b506100b96102ec565b604080516001600160a01b039092168252519081900360200190f35b3480156100e157600080fd5b50610108600480360360208110156100f857600080fd5b50356001600160a01b03166102fb565b60408051918252519081900360200190f35b34801561012657600080fd5b5061008d6004803603602081101561013d57600080fd5b50356001600160a01b0316610316565b61008d6004803603602081101561016357600080fd5b50356001600160a01b0316610418565b61017b6104f5565b6001600160a01b031661018c6102ec565b6001600160a01b0316146101d5576040805162461bcd60e51b815260206004820181905260248201526000805160206106a5833981519152604482015290519081900360640190fd5b6001600160a01b03811660008181526001602052604081208054919055906101fd90826104f9565b6040805182815290516001600160a01b038416917f7084f5476618d8e60b11ef0d7d3f06914655adb8793e28ff7f018d4c76d505d5919081900360200190a25050565b6102486104f5565b6001600160a01b03166102596102ec565b6001600160a01b0316146102a2576040805162461bcd60e51b815260206004820181905260248201526000805160206106a5833981519152604482015290519081900360640190fd5b600080546040516001600160a01b03909116907f8be0079c531659141344cd1fd0a4f28419497f9722a3daafe3b4186f6b6457e0908390a3600080546001600160a01b0319169055565b6000546001600160a01b031690565b6001600160a01b031660009081526001602052604090205490565b61031e6104f5565b6001600160a01b031661032f6102ec565b6001600160a01b031614610378576040805162461bcd60e51b815260206004820181905260248201526000805160206106a5833981519152604482015290519081900360640190fd5b6001600160a01b0381166103bd5760405162461bcd60e51b81526004018080602001828103825260268152602001806106456026913960400191505060405180910390fd5b600080546040516001600160a01b03808516939216917f8be0079c531659141344cd1fd0a4f28419497f9722a3daafe3b4186f6b6457e091a3600080546001600160a01b0319166001600160a01b0392909216919091179055565b6104206104f5565b6001600160a01b03166104316102ec565b6001600160a01b03161461047a576040805162461bcd60e51b815260206004820181905260248201526000805160206106a5833981519152604482015290519081900360640190fd5b6001600160a01b038116600090815260016020526040902054349061049f90826105e3565b6001600160a01b038316600081815260016020908152604091829020939093558051848152905191927f2da466a7b24304f47e87fa2e1e5a81b9831ce54fec19055ce277ca2f39ba42c492918290030190a25050565b3390565b8047101561054e576040805162461bcd60e51b815260206004820152601d60248201527f416464726573733a20696e73756666696369656e742062616c616e6365000000604482015290519081900360640190fd5b6040516000906001600160a01b0384169083908381818185875af1925050503d8060008114610599576040519150601f19603f3d011682016040523d82523d6000602084013e61059e565b606091505b50509050806105de5760405162461bcd60e51b815260040180806020018281038252603a81526020018061066b603a913960400191505060405180910390fd5b505050565b60008282018381101561063d576040805162461bcd60e51b815260206004820152601b60248201527f536166654d6174683a206164646974696f6e206f766572666c6f770000000000604482015290519081900360640190fd5b939250505056fe4f776e61626c653a206e6577206f776e657220697320746865207a65726f2061646472657373416464726573733a20756e61626c6520746f2073656e642076616c75652c20726563697069656e74206d617920686176652072657665727465644f776e61626c653a2063616c6c6572206973206e6f7420746865206f776e6572a26469706673582212209bb3dc6b7a5af4009314fee85389f23651f33ac5cb0745f47682f044ee713cd164736f6c634300060c0033636f6e7374727563746f723a3a43616e6e6f742068617665206e756c6c206164647265737320666f72205f6945524337323143726561746f72526f79616c7479636f6e7374727563746f723a3a43616e6e6f742068617665206e756c6c206164647265737320666f72205f694d61726b657453657474696e6773",
			"opcodes": "PUSH1 0x80 PUSH1 0x40 MSTORE CALLVALUE DUP1 ISZERO PUSH3 0x11 JUMPI PUSH1 0x0 DUP1 REVERT JUMPDEST POP PUSH1 0x40 MLOAD PUSH3 0x35F2 CODESIZE SUB DUP1 PUSH3 0x35F2 DUP4 CODECOPY DUP2 DUP2 ADD PUSH1 0x40 MSTORE PUSH1 0x40 DUP2 LT ISZERO PUSH3 0x37 JUMPI PUSH1 0x0 DUP1 REVERT JUMPDEST POP DUP1 MLOAD PUSH1 0x20 SWAP1 SWAP2 ADD MLOAD PUSH1 0x0 PUSH3 0x4C PUSH3 0x1EF JUMP JUMPDEST PUSH1 0x0 DUP1 SLOAD PUSH1 0x1 PUSH1 0x1 PUSH1 0xA0 SHL SUB NOT AND PUSH1 0x1 PUSH1 0x1 PUSH1 0xA0 SHL SUB DUP4 AND SWAP1 DUP2 OR DUP3 SSTORE PUSH1 0x40 MLOAD SWAP3 SWAP4 POP SWAP2 PUSH32 0x8BE0079C531659141344CD1FD0A4F28419497F9722A3DAAFE3B4186F6B6457E0 SWAP1 DUP3 SWAP1 LOG3 POP PUSH1 0x40 MLOAD PUSH3 0xA4 SWAP1 PUSH3 0x1F3 JUMP JUMPDEST PUSH1 0x40 MLOAD DUP1 SWAP2 SUB SWAP1 PUSH1 0x0 CREATE DUP1 ISZERO DUP1 ISZERO PUSH3 0xC1 JUMPI RETURNDATASIZE PUSH1 0x0 DUP1 RETURNDATACOPY RETURNDATASIZE PUSH1 0x0 REVERT JUMPDEST POP PUSH1 0x1 DUP1 SLOAD PUSH1 0x1 PUSH1 0x1 PUSH1 0xA0 SHL SUB NOT AND PUSH1 0x1 PUSH1 0x1 PUSH1 0xA0 SHL SUB SWAP3 SWAP1 SWAP3 AND SWAP2 SWAP1 SWAP2 OR SWAP1 SSTORE PUSH1 0x40 MLOAD PUSH3 0xF0 SWAP1 PUSH3 0x200 JUMP JUMPDEST PUSH1 0x40 MLOAD DUP1 SWAP2 SUB SWAP1 PUSH1 0x0 CREATE DUP1 ISZERO DUP1 ISZERO PUSH3 0x10D JUMPI RETURNDATASIZE PUSH1 0x0 DUP1 RETURNDATACOPY RETURNDATASIZE PUSH1 0x0 REVERT JUMPDEST POP PUSH1 0x2 DUP1 SLOAD PUSH1 0x1 PUSH1 0x1 PUSH1 0xA0 SHL SUB NOT AND PUSH1 0x1 PUSH1 0x1 PUSH1 0xA0 SHL SUB SWAP3 DUP4 AND OR SWAP1 SSTORE DUP3 AND PUSH3 0x169 JUMPI PUSH1 0x40 MLOAD PUSH3 0x461BCD PUSH1 0xE5 SHL DUP2 MSTORE PUSH1 0x4 ADD DUP1 DUP1 PUSH1 0x20 ADD DUP3 DUP2 SUB DUP3 MSTORE PUSH1 0x3A DUP2 MSTORE PUSH1 0x20 ADD DUP1 PUSH3 0x35B8 PUSH1 0x3A SWAP2 CODECOPY PUSH1 0x40 ADD SWAP2 POP POP PUSH1 0x40 MLOAD DUP1 SWAP2 SUB SWAP1 REVERT JUMPDEST PUSH1 0x1 PUSH1 0x1 PUSH1 0xA0 SHL SUB DUP2 AND PUSH3 0x1B0 JUMPI PUSH1 0x40 MLOAD PUSH3 0x461BCD PUSH1 0xE5 SHL DUP2 MSTORE PUSH1 0x4 ADD DUP1 DUP1 PUSH1 0x20 ADD DUP3 DUP2 SUB DUP3 MSTORE PUSH1 0x40 DUP2 MSTORE PUSH1 0x20 ADD DUP1 PUSH3 0x3578 PUSH1 0x40 SWAP2 CODECOPY PUSH1 0x40 ADD SWAP2 POP POP PUSH1 0x40 MLOAD DUP1 SWAP2 SUB SWAP1 REVERT JUMPDEST PUSH1 0x3 DUP1 SLOAD PUSH1 0x1 PUSH1 0x1 PUSH1 0xA0 SHL SUB SWAP4 DUP5 AND PUSH1 0x1 PUSH1 0x1 PUSH1 0xA0 SHL SUB NOT SWAP2 DUP3 AND OR SWAP1 SWAP2 SSTORE PUSH1 0x4 DUP1 SLOAD SWAP3 SWAP1 SWAP4 AND SWAP2 AND OR SWAP1 SSTORE PUSH1 0x7 DUP1 SLOAD PUSH1 0xFF NOT AND PUSH1 0xA OR SWAP1 SSTORE PUSH3 0x20E JUMP JUMPDEST CALLER SWAP1 JUMP JUMPDEST PUSH1 0xD3 DUP1 PUSH3 0x2D2E DUP4 CODECOPY ADD SWAP1 JUMP JUMPDEST PUSH2 0x777 DUP1 PUSH3 0x2E01 DUP4 CODECOPY ADD SWAP1 JUMP JUMPDEST PUSH2 0x2B10 DUP1 PUSH3 0x21E PUSH1 0x0 CODECOPY PUSH1 0x0 RETURN INVALID PUSH1 0x80 PUSH1 0x40 MSTORE PUSH1 0x4 CALLDATASIZE LT PUSH2 0x12A JUMPI PUSH1 0x0 CALLDATALOAD PUSH1 0xE0 SHR DUP1 PUSH4 0x8DA5CB5B GT PUSH2 0xAB JUMPI DUP1 PUSH4 0xC0F4ED31 GT PUSH2 0x6F JUMPI DUP1 PUSH4 0xC0F4ED31 EQ PUSH2 0x44B JUMPI DUP1 PUSH4 0xC8DB6962 EQ PUSH2 0x47D JUMPI DUP1 PUSH4 0xCAFDCAD0 EQ PUSH2 0x4AF JUMPI DUP1 PUSH4 0xCCE7EC13 EQ PUSH2 0x4C4 JUMPI DUP1 PUSH4 0xE2982C21 EQ PUSH2 0x4F0 JUMPI DUP1 PUSH4 0xF2FDE38B EQ PUSH2 0x523 JUMPI PUSH2 0x12A JUMP JUMPDEST DUP1 PUSH4 0x8DA5CB5B EQ PUSH2 0x348 JUMPI DUP1 PUSH4 0x916C03BA EQ PUSH2 0x379 JUMPI DUP1 PUSH4 0x93D10CEA EQ PUSH2 0x3C4 JUMPI DUP1 PUSH4 0x955A5A76 EQ PUSH2 0x3FD JUMPI DUP1 PUSH4 0xA334C844 EQ PUSH2 0x436 JUMPI PUSH2 0x12A JUMP JUMPDEST DUP1 PUSH4 0x48626B90 GT PUSH2 0xF2 JUMPI DUP1 PUSH4 0x48626B90 EQ PUSH2 0x25D JUMPI DUP1 PUSH4 0x508C1DBD EQ PUSH2 0x28A JUMPI DUP1 PUSH4 0x6FE9F44C EQ PUSH2 0x2C9 JUMPI DUP1 PUSH4 0x715018A6 EQ PUSH2 0x2F4 JUMPI DUP1 PUSH4 0x7598FDB3 EQ PUSH2 0x309 JUMPI PUSH2 0x12A JUMP JUMPDEST DUP1 PUSH4 0xD7D703F EQ PUSH2 0x12F JUMPI DUP1 PUSH4 0x14DF85E9 EQ PUSH2 0x164 JUMPI DUP1 PUSH4 0x176AB440 EQ PUSH2 0x1BE JUMPI DUP1 PUSH4 0x31B3EB94 EQ PUSH2 0x1F1 JUMPI DUP1 PUSH4 0x39B6B1E5 EQ PUSH2 0x224 JUMPI JUMPDEST PUSH1 0x0 DUP1 REVERT JUMPDEST CALLVALUE DUP1 ISZERO PUSH2 0x13B JUMPI PUSH1 0x0 DUP1 REVERT JUMPDEST POP PUSH2 0x162 PUSH1 0x4 DUP1 CALLDATASIZE SUB PUSH1 0x20 DUP2 LT ISZERO PUSH2 0x152 JUMPI PUSH1 0x0 DUP1 REVERT JUMPDEST POP CALLDATALOAD PUSH1 0x1 PUSH1 0x1 PUSH1 0xA0 SHL SUB AND PUSH2 0x556 JUMP JUMPDEST STOP JUMPDEST CALLVALUE DUP1 ISZERO PUSH2 0x170 JUMPI PUSH1 0x0 DUP1 REVERT JUMPDEST POP PUSH2 0x19D PUSH1 0x4 DUP1 CALLDATASIZE SUB PUSH1 0x40 DUP2 LT ISZERO PUSH2 0x187 JUMPI PUSH1 0x0 DUP1 REVERT JUMPDEST POP PUSH1 0x1 PUSH1 0x1 PUSH1 0xA0 SHL SUB DUP2 CALLDATALOAD AND SWAP1 PUSH1 0x20 ADD CALLDATALOAD PUSH2 0x61F JUMP JUMPDEST PUSH1 0x40 DUP1 MLOAD SWAP3 DUP4 MSTORE PUSH1 0x1 PUSH1 0x1 PUSH1 0xA0 SHL SUB SWAP1 SWAP2 AND PUSH1 0x20 DUP4 ADD MSTORE DUP1 MLOAD SWAP2 DUP3 SWAP1 SUB ADD SWAP1 RETURN JUMPDEST CALLVALUE DUP1 ISZERO PUSH2 0x1CA JUMPI PUSH1 0x0 DUP1 REVERT JUMPDEST POP PUSH2 0x162 PUSH1 0x4 DUP1 CALLDATASIZE SUB PUSH1 0x20 DUP2 LT ISZERO PUSH2 0x1E1 JUMPI PUSH1 0x0 DUP1 REVERT JUMPDEST POP CALLDATALOAD PUSH1 0x1 PUSH1 0x1 PUSH1 0xA0 SHL SUB AND PUSH2 0x650 JUMP JUMPDEST CALLVALUE DUP1 ISZERO PUSH2 0x1FD JUMPI PUSH1 0x0 DUP1 REVERT JUMPDEST POP PUSH2 0x162 PUSH1 0x4 DUP1 CALLDATASIZE SUB PUSH1 0x20 DUP2 LT ISZERO PUSH2 0x214 JUMPI PUSH1 0x0 DUP1 REVERT JUMPDEST POP CALLDATALOAD PUSH1 0x1 PUSH1 0x1 PUSH1 0xA0 SHL SUB AND PUSH2 0x719 JUMP JUMPDEST CALLVALUE DUP1 ISZERO PUSH2 0x230 JUMPI PUSH1 0x0 DUP1 REVERT JUMPDEST POP PUSH2 0x162 PUSH1 0x4 DUP1 CALLDATASIZE SUB PUSH1 0x40 DUP2 LT ISZERO PUSH2 0x247 JUMPI PUSH1 0x0 DUP1 REVERT JUMPDEST POP PUSH1 0x1 PUSH1 0x1 PUSH1 0xA0 SHL SUB DUP2 CALLDATALOAD AND SWAP1 PUSH1 0x20 ADD CALLDATALOAD PUSH2 0x782 JUMP JUMPDEST CALLVALUE DUP1 ISZERO PUSH2 0x269 JUMPI PUSH1 0x0 DUP1 REVERT JUMPDEST POP PUSH2 0x162 PUSH1 0x4 DUP1 CALLDATASIZE SUB PUSH1 0x20 DUP2 LT ISZERO PUSH2 0x280 JUMPI PUSH1 0x0 DUP1 REVERT JUMPDEST POP CALLDATALOAD PUSH1 0xFF AND PUSH2 0x836 JUMP JUMPDEST CALLVALUE DUP1 ISZERO PUSH2 0x296 JUMPI PUSH1 0x0 DUP1 REVERT JUMPDEST POP PUSH2 0x162 PUSH1 0x4 DUP1 CALLDATASIZE SUB PUSH1 0x60 DUP2 LT ISZERO PUSH2 0x2AD JUMPI PUSH1 0x0 DUP1 REVERT JUMPDEST POP PUSH1 0x1 PUSH1 0x1 PUSH1 0xA0 SHL SUB DUP2 CALLDATALOAD AND SWAP1 PUSH1 0x20 DUP2 ADD CALLDATALOAD SWAP1 PUSH1 0x40 ADD CALLDATALOAD PUSH2 0x8AE JUMP JUMPDEST CALLVALUE DUP1 ISZERO PUSH2 0x2D5 JUMPI PUSH1 0x0 DUP1 REVERT JUMPDEST POP PUSH2 0x2DE PUSH2 0x9AB JUMP JUMPDEST PUSH1 0x40 DUP1 MLOAD PUSH1 0xFF SWAP1 SWAP3 AND DUP3 MSTORE MLOAD SWAP1 DUP2 SWAP1 SUB PUSH1 0x20 ADD SWAP1 RETURN JUMPDEST CALLVALUE DUP1 ISZERO PUSH2 0x300 JUMPI PUSH1 0x0 DUP1 REVERT JUMPDEST POP PUSH2 0x162 PUSH2 0x9B4 JUMP JUMPDEST CALLVALUE DUP1 ISZERO PUSH2 0x315 JUMPI PUSH1 0x0 DUP1 REVERT JUMPDEST POP PUSH2 0x162 PUSH1 0x4 DUP1 CALLDATASIZE SUB PUSH1 0x60 DUP2 LT ISZERO PUSH2 0x32C JUMPI PUSH1 0x0 DUP1 REVERT JUMPDEST POP PUSH1 0x1 PUSH1 0x1 PUSH1 0xA0 SHL SUB DUP2 CALLDATALOAD AND SWAP1 PUSH1 0x20 DUP2 ADD CALLDATALOAD SWAP1 PUSH1 0x40 ADD CALLDATALOAD PUSH2 0xA60 JUMP JUMPDEST CALLVALUE DUP1 ISZERO PUSH2 0x354 JUMPI PUSH1 0x0 DUP1 REVERT JUMPDEST POP PUSH2 0x35D PUSH2 0xACE JUMP JUMPDEST PUSH1 0x40 DUP1 MLOAD PUSH1 0x1 PUSH1 0x1 PUSH1 0xA0 SHL SUB SWAP1 SWAP3 AND DUP3 MSTORE MLOAD SWAP1 DUP2 SWAP1 SUB PUSH1 0x20 ADD SWAP1 RETURN JUMPDEST CALLVALUE DUP1 ISZERO PUSH2 0x385 JUMPI PUSH1 0x0 DUP1 REVERT JUMPDEST POP PUSH2 0x3B2 PUSH1 0x4 DUP1 CALLDATASIZE SUB PUSH1 0x40 DUP2 LT ISZERO PUSH2 0x39C JUMPI PUSH1 0x0 DUP1 REVERT JUMPDEST POP PUSH1 0x1 PUSH1 0x1 PUSH1 0xA0 SHL SUB DUP2 CALLDATALOAD AND SWAP1 PUSH1 0x20 ADD CALLDATALOAD PUSH2 0xADD JUMP JUMPDEST PUSH1 0x40 DUP1 MLOAD SWAP2 DUP3 MSTORE MLOAD SWAP1 DUP2 SWAP1 SUB PUSH1 0x20 ADD SWAP1 RETURN JUMPDEST CALLVALUE DUP1 ISZERO PUSH2 0x3D0 JUMPI PUSH1 0x0 DUP1 REVERT JUMPDEST POP PUSH2 0x3B2 PUSH1 0x4 DUP1 CALLDATASIZE SUB PUSH1 0x40 DUP2 LT ISZERO PUSH2 0x3E7 JUMPI PUSH1 0x0 DUP1 REVERT JUMPDEST POP PUSH1 0x1 PUSH1 0x1 PUSH1 0xA0 SHL SUB DUP2 CALLDATALOAD AND SWAP1 PUSH1 0x20 ADD CALLDATALOAD PUSH2 0xB2F JUMP JUMPDEST CALLVALUE DUP1 ISZERO PUSH2 0x409 JUMPI PUSH1 0x0 DUP1 REVERT JUMPDEST POP PUSH2 0x162 PUSH1 0x4 DUP1 CALLDATASIZE SUB PUSH1 0x40 DUP2 LT ISZERO PUSH2 0x420 JUMPI PUSH1 0x0 DUP1 REVERT JUMPDEST POP PUSH1 0x1 PUSH1 0x1 PUSH1 0xA0 SHL SUB DUP2 CALLDATALOAD AND SWAP1 PUSH1 0x20 ADD CALLDATALOAD PUSH2 0xC17 JUMP JUMPDEST CALLVALUE DUP1 ISZERO PUSH2 0x442 JUMPI PUSH1 0x0 DUP1 REVERT JUMPDEST POP PUSH2 0x35D PUSH2 0x10C7 JUMP JUMPDEST PUSH2 0x162 PUSH1 0x4 DUP1 CALLDATASIZE SUB PUSH1 0x60 DUP2 LT ISZERO PUSH2 0x461 JUMPI PUSH1 0x0 DUP1 REVERT JUMPDEST POP DUP1 CALLDATALOAD SWAP1 PUSH1 0x1 PUSH1 0x1 PUSH1 0xA0 SHL SUB PUSH1 0x20 DUP3 ADD CALLDATALOAD AND SWAP1 PUSH1 0x40 ADD CALLDATALOAD PUSH2 0x10D6 JUMP JUMPDEST PUSH2 0x162 PUSH1 0x4 DUP1 CALLDATASIZE SUB PUSH1 0x60 DUP2 LT ISZERO PUSH2 0x493 JUMPI PUSH1 0x0 DUP1 REVERT JUMPDEST POP PUSH1 0x1 PUSH1 0x1 PUSH1 0xA0 SHL SUB DUP2 CALLDATALOAD AND SWAP1 PUSH1 0x20 DUP2 ADD CALLDATALOAD SWAP1 PUSH1 0x40 ADD CALLDATALOAD PUSH2 0x13C1 JUMP JUMPDEST CALLVALUE DUP1 ISZERO PUSH2 0x4BB JUMPI PUSH1 0x0 DUP1 REVERT JUMPDEST POP PUSH2 0x35D PUSH2 0x142F JUMP JUMPDEST PUSH2 0x162 PUSH1 0x4 DUP1 CALLDATASIZE SUB PUSH1 0x40 DUP2 LT ISZERO PUSH2 0x4DA JUMPI PUSH1 0x0 DUP1 REVERT JUMPDEST POP PUSH1 0x1 PUSH1 0x1 PUSH1 0xA0 SHL SUB DUP2 CALLDATALOAD AND SWAP1 PUSH1 0x20 ADD CALLDATALOAD PUSH2 0x143E JUMP JUMPDEST CALLVALUE DUP1 ISZERO PUSH2 0x4FC JUMPI PUSH1 0x0 DUP1 REVERT JUMPDEST POP PUSH2 0x3B2 PUSH1 0x4 DUP1 CALLDATASIZE SUB PUSH1 0x20 DUP2 LT ISZERO PUSH2 0x513 JUMPI PUSH1 0x0 DUP1 REVERT JUMPDEST POP CALLDATALOAD PUSH1 0x1 PUSH1 0x1 PUSH1 0xA0 SHL SUB AND PUSH2 0x19C1 JUMP JUMPDEST CALLVALUE DUP1 ISZERO PUSH2 0x52F JUMPI PUSH1 0x0 DUP1 REVERT JUMPDEST POP PUSH2 0x162 PUSH1 0x4 DUP1 CALLDATASIZE SUB PUSH1 0x20 DUP2 LT ISZERO PUSH2 0x546 JUMPI PUSH1 0x0 DUP1 REVERT JUMPDEST POP CALLDATALOAD PUSH1 0x1 PUSH1 0x1 PUSH1 0xA0 SHL SUB AND PUSH2 0x1A44 JUMP JUMPDEST PUSH2 0x55E PUSH2 0x1B46 JUMP JUMPDEST PUSH1 0x1 PUSH1 0x1 PUSH1 0xA0 SHL SUB AND PUSH2 0x56F PUSH2 0xACE JUMP JUMPDEST PUSH1 0x1 PUSH1 0x1 PUSH1 0xA0 SHL SUB AND EQ PUSH2 0x5B8 JUMPI PUSH1 0x40 DUP1 MLOAD PUSH3 0x461BCD PUSH1 0xE5 SHL DUP2 MSTORE PUSH1 0x20 PUSH1 0x4 DUP3 ADD DUP2 SWAP1 MSTORE PUSH1 0x24 DUP3 ADD MSTORE PUSH1 0x0 DUP1 MLOAD PUSH1 0x20 PUSH2 0x2A79 DUP4 CODECOPY DUP2 MLOAD SWAP2 MSTORE PUSH1 0x44 DUP3 ADD MSTORE SWAP1 MLOAD SWAP1 DUP2 SWAP1 SUB PUSH1 0x64 ADD SWAP1 REVERT JUMPDEST PUSH1 0x1 PUSH1 0x1 PUSH1 0xA0 SHL SUB DUP2 AND PUSH2 0x5FD JUMPI PUSH1 0x40 MLOAD PUSH3 0x461BCD PUSH1 0xE5 SHL DUP2 MSTORE PUSH1 0x4 ADD DUP1 DUP1 PUSH1 0x20 ADD DUP3 DUP2 SUB DUP3 MSTORE PUSH1 0x4D DUP2 MSTORE PUSH1 0x20 ADD DUP1 PUSH2 0x272E PUSH1 0x4D SWAP2 CODECOPY PUSH1 0x60 ADD SWAP2 POP POP PUSH1 0x40 MLOAD DUP1 SWAP2 SUB SWAP1 REVERT JUMPDEST PUSH1 0x4 DUP1 SLOAD PUSH1 0x1 PUSH1 0x1 PUSH1 0xA0 SHL SUB NOT AND PUSH1 0x1 PUSH1 0x1 PUSH1 0xA0 SHL SUB SWAP3 SWAP1 SWAP3 AND SWAP2 SWAP1 SWAP2 OR SWAP1 SSTORE JUMP JUMPDEST PUSH1 0x1 PUSH1 0x1 PUSH1 0xA0 SHL SUB SWAP2 DUP3 AND PUSH1 0x0 SWAP1 DUP2 MSTORE PUSH1 0x6 PUSH1 0x20 SWAP1 DUP2 MSTORE PUSH1 0x40 DUP1 DUP4 KECCAK256 SWAP4 DUP4 MSTORE SWAP3 SWAP1 MSTORE KECCAK256 PUSH1 0x1 DUP2 ADD SLOAD SWAP1 SLOAD SWAP1 SWAP3 SWAP2 AND SWAP1 JUMP JUMPDEST PUSH2 0x658 PUSH2 0x1B46 JUMP JUMPDEST PUSH1 0x1 PUSH1 0x1 PUSH1 0xA0 SHL SUB AND PUSH2 0x669 PUSH2 0xACE JUMP JUMPDEST PUSH1 0x1 PUSH1 0x1 PUSH1 0xA0 SHL SUB AND EQ PUSH2 0x6B2 JUMPI PUSH1 0x40 DUP1 MLOAD PUSH3 0x461BCD PUSH1 0xE5 SHL DUP2 MSTORE PUSH1 0x20 PUSH1 0x4 DUP3 ADD DUP2 SWAP1 MSTORE PUSH1 0x24 DUP3 ADD MSTORE PUSH1 0x0 DUP1 MLOAD PUSH1 0x20 PUSH2 0x2A79 DUP4 CODECOPY DUP2 MLOAD SWAP2 MSTORE PUSH1 0x44 DUP3 ADD MSTORE SWAP1 MLOAD SWAP1 DUP2 SWAP1 SUB PUSH1 0x64 ADD SWAP1 REVERT JUMPDEST PUSH1 0x1 PUSH1 0x1 PUSH1 0xA0 SHL SUB DUP2 AND PUSH2 0x6F7 JUMPI PUSH1 0x40 MLOAD PUSH3 0x461BCD PUSH1 0xE5 SHL DUP2 MSTORE PUSH1 0x4 ADD DUP1 DUP1 PUSH1 0x20 ADD DUP3 DUP2 SUB DUP3 MSTORE PUSH1 0x45 DUP2 MSTORE PUSH1 0x20 ADD DUP1 PUSH2 0x29F2 PUSH1 0x45 SWAP2 CODECOPY PUSH1 0x60 ADD SWAP2 POP POP PUSH1 0x40 MLOAD DUP1 SWAP2 SUB SWAP1 REVERT JUMPDEST PUSH1 0x3 DUP1 SLOAD PUSH1 0x1 PUSH1 0x1 PUSH1 0xA0 SHL SUB NOT AND PUSH1 0x1 PUSH1 0x1 PUSH1 0xA0 SHL SUB SWAP3 SWAP1 SWAP3 AND SWAP2 SWAP1 SWAP2 OR SWAP1 SSTORE JUMP JUMPDEST PUSH1 0x2 SLOAD PUSH1 0x40 DUP1 MLOAD PUSH4 0x51CFF8D9 PUSH1 0xE0 SHL DUP2 MSTORE PUSH1 0x1 PUSH1 0x1 PUSH1 0xA0 SHL SUB DUP5 DUP2 AND PUSH1 0x4 DUP4 ADD MSTORE SWAP2 MLOAD SWAP2 SWAP1 SWAP3 AND SWAP2 PUSH4 0x51CFF8D9 SWAP2 PUSH1 0x24 DUP1 DUP4 ADD SWAP3 PUSH1 0x0 SWAP3 SWAP2 SWAP1 DUP3 SWAP1 SUB ADD DUP2 DUP4 DUP8 DUP1 EXTCODESIZE ISZERO DUP1 ISZERO PUSH2 0x767 JUMPI PUSH1 0x0 DUP1 REVERT JUMPDEST POP GAS CALL ISZERO DUP1 ISZERO PUSH2 0x77B JUMPI RETURNDATASIZE PUSH1 0x0 DUP1 RETURNDATACOPY RETURNDATASIZE PUSH1 0x0 REVERT JUMPDEST POP POP POP POP POP JUMP JUMPDEST PUSH2 0x78D CALLER DUP4 DUP4 PUSH2 0x1B4A JUMP JUMPDEST PUSH2 0x7C8 JUMPI PUSH1 0x40 MLOAD PUSH3 0x461BCD PUSH1 0xE5 SHL DUP2 MSTORE PUSH1 0x4 ADD DUP1 DUP1 PUSH1 0x20 ADD DUP3 DUP2 SUB DUP3 MSTORE PUSH1 0x39 DUP2 MSTORE PUSH1 0x20 ADD DUP1 PUSH2 0x295F PUSH1 0x39 SWAP2 CODECOPY PUSH1 0x40 ADD SWAP2 POP POP PUSH1 0x40 MLOAD DUP1 SWAP2 SUB SWAP1 REVERT JUMPDEST PUSH2 0x7D2 DUP3 DUP3 PUSH2 0x1B7D JUMP JUMPDEST PUSH1 0x1 PUSH1 0x1 PUSH1 0xA0 SHL SUB DUP3 AND PUSH1 0x0 DUP2 DUP2 MSTORE PUSH1 0x6 PUSH1 0x20 SWAP1 DUP2 MSTORE PUSH1 0x40 DUP1 DUP4 KECCAK256 DUP6 DUP5 MSTORE DUP3 MSTORE SWAP2 DUP3 SWAP1 KECCAK256 PUSH1 0x1 ADD SLOAD DUP3 MLOAD SWAP1 DUP2 MSTORE SWAP1 DUP2 ADD DUP5 SWAP1 MSTORE DUP2 MLOAD CALLER SWAP4 SWAP3 PUSH32 0x99A3761C98D7A0C3980CBEB3D8009B315A463F8020B43CA1E6901611B06547F9 SWAP3 DUP3 SWAP1 SUB ADD SWAP1 LOG3 POP POP JUMP JUMPDEST PUSH2 0x83E PUSH2 0x1B46 JUMP JUMPDEST PUSH1 0x1 PUSH1 0x1 PUSH1 0xA0 SHL SUB AND PUSH2 0x84F PUSH2 0xACE JUMP JUMPDEST PUSH1 0x1 PUSH1 0x1 PUSH1 0xA0 SHL SUB AND EQ PUSH2 0x898 JUMPI PUSH1 0x40 DUP1 MLOAD PUSH3 0x461BCD PUSH1 0xE5 SHL DUP2 MSTORE PUSH1 0x20 PUSH1 0x4 DUP3 ADD DUP2 SWAP1 MSTORE PUSH1 0x24 DUP3 ADD MSTORE PUSH1 0x0 DUP1 MLOAD PUSH1 0x20 PUSH2 0x2A79 DUP4 CODECOPY DUP2 MLOAD SWAP2 MSTORE PUSH1 0x44 DUP3 ADD MSTORE SWAP1 MLOAD SWAP1 DUP2 SWAP1 SUB PUSH1 0x64 ADD SWAP1 REVERT JUMPDEST PUSH1 0x7 DUP1 SLOAD PUSH1 0xFF NOT AND PUSH1 0xFF SWAP3 SWAP1 SWAP3 AND SWAP2 SWAP1 SWAP2 OR SWAP1 SSTORE JUMP JUMPDEST PUSH2 0x8B8 DUP4 DUP4 PUSH2 0x1C08 JUMP JUMPDEST PUSH2 0x8C2 DUP4 DUP4 PUSH2 0x1D3F JUMP JUMPDEST DUP1 PUSH2 0x919 JUMPI PUSH2 0x8D1 DUP4 DUP4 PUSH2 0x1E11 JUMP JUMPDEST PUSH1 0x40 DUP1 MLOAD DUP3 DUP2 MSTORE PUSH1 0x20 DUP2 ADD DUP5 SWAP1 MSTORE DUP2 MLOAD PUSH1 0x1 PUSH1 0x1 PUSH1 0xA0 SHL SUB DUP7 AND SWAP3 PUSH32 0xB0B0E4ADF2724AF8F1646EAE3A16F45D696C9334594729D09BF192DA1F783871 SWAP3 DUP3 SWAP1 SUB ADD SWAP1 LOG2 PUSH2 0x9A6 JUMP JUMPDEST PUSH1 0x40 DUP1 MLOAD DUP1 DUP3 ADD DUP3 MSTORE CALLER DUP2 MSTORE PUSH1 0x20 DUP1 DUP3 ADD DUP5 DUP2 MSTORE PUSH1 0x1 PUSH1 0x1 PUSH1 0xA0 SHL SUB DUP8 DUP2 AND PUSH1 0x0 DUP2 DUP2 MSTORE PUSH1 0x5 DUP6 MSTORE DUP7 DUP2 KECCAK256 DUP10 DUP3 MSTORE DUP6 MSTORE DUP7 SWAP1 KECCAK256 SWAP5 MLOAD DUP6 SLOAD PUSH1 0x1 PUSH1 0x1 PUSH1 0xA0 SHL SUB NOT AND SWAP3 AND SWAP2 SWAP1 SWAP2 OR DUP5 SSTORE SWAP1 MLOAD PUSH1 0x1 SWAP1 SWAP4 ADD SWAP3 SWAP1 SWAP3 SSTORE DUP3 MLOAD DUP5 DUP2 MSTORE SWAP1 DUP2 ADD DUP6 SWAP1 MSTORE DUP3 MLOAD SWAP2 SWAP3 PUSH32 0xB0B0E4ADF2724AF8F1646EAE3A16F45D696C9334594729D09BF192DA1F783871 SWAP3 SWAP2 DUP3 SWAP1 SUB ADD SWAP1 LOG2 JUMPDEST POP POP POP JUMP JUMPDEST PUSH1 0x7 SLOAD PUSH1 0xFF AND DUP2 JUMP JUMPDEST PUSH2 0x9BC PUSH2 0x1B46 JUMP JUMPDEST PUSH1 0x1 PUSH1 0x1 PUSH1 0xA0 SHL SUB AND PUSH2 0x9CD PUSH2 0xACE JUMP JUMPDEST PUSH1 0x1 PUSH1 0x1 PUSH1 0xA0 SHL SUB AND EQ PUSH2 0xA16 JUMPI PUSH1 0x40 DUP1 MLOAD PUSH3 0x461BCD PUSH1 0xE5 SHL DUP2 MSTORE PUSH1 0x20 PUSH1 0x4 DUP3 ADD DUP2 SWAP1 MSTORE PUSH1 0x24 DUP3 ADD MSTORE PUSH1 0x0 DUP1 MLOAD PUSH1 0x20 PUSH2 0x2A79 DUP4 CODECOPY DUP2 MLOAD SWAP2 MSTORE PUSH1 0x44 DUP3 ADD MSTORE SWAP1 MLOAD SWAP1 DUP2 SWAP1 SUB PUSH1 0x64 ADD SWAP1 REVERT JUMPDEST PUSH1 0x0 DUP1 SLOAD PUSH1 0x40 MLOAD PUSH1 0x1 PUSH1 0x1 PUSH1 0xA0 SHL SUB SWAP1 SWAP2 AND SWAP1 PUSH32 0x8BE0079C531659141344CD1FD0A4F28419497F9722A3DAAFE3B4186F6B6457E0 SWAP1 DUP4 SWAP1 LOG3 PUSH1 0x0 DUP1 SLOAD PUSH1 0x1 PUSH1 0x1 PUSH1 0xA0 SHL SUB NOT AND SWAP1 SSTORE JUMP JUMPDEST PUSH1 0x1 PUSH1 0x1 PUSH1 0xA0 SHL SUB DUP4 AND PUSH1 0x0 SWAP1 DUP2 MSTORE PUSH1 0x6 PUSH1 0x20 SWAP1 DUP2 MSTORE PUSH1 0x40 DUP1 DUP4 KECCAK256 DUP6 DUP5 MSTORE SWAP1 SWAP2 MSTORE SWAP1 KECCAK256 PUSH1 0x1 ADD SLOAD DUP2 EQ PUSH2 0xAC4 JUMPI PUSH1 0x40 MLOAD PUSH3 0x461BCD PUSH1 0xE5 SHL DUP2 MSTORE PUSH1 0x4 ADD DUP1 DUP1 PUSH1 0x20 ADD DUP3 DUP2 SUB DUP3 MSTORE PUSH1 0x34 DUP2 MSTORE PUSH1 0x20 ADD DUP1 PUSH2 0x28F9 PUSH1 0x34 SWAP2 CODECOPY PUSH1 0x40 ADD SWAP2 POP POP PUSH1 0x40 MLOAD DUP1 SWAP2 SUB SWAP1 REVERT JUMPDEST PUSH2 0x9A6 DUP4 DUP4 PUSH2 0xC17 JUMP JUMPDEST PUSH1 0x0 SLOAD PUSH1 0x1 PUSH1 0x1 PUSH1 0xA0 SHL SUB AND SWAP1 JUMP JUMPDEST PUSH1 0x0 PUSH2 0xAE9 DUP4 DUP4 PUSH2 0x1C08 JUMP JUMPDEST PUSH2 0xAF3 DUP4 DUP4 PUSH2 0x1E64 JUMP JUMPDEST ISZERO PUSH2 0xB25 JUMPI POP PUSH1 0x1 PUSH1 0x1 PUSH1 0xA0 SHL SUB DUP3 AND PUSH1 0x0 SWAP1 DUP2 MSTORE PUSH1 0x5 PUSH1 0x20 SWAP1 DUP2 MSTORE PUSH1 0x40 DUP1 DUP4 KECCAK256 DUP5 DUP5 MSTORE SWAP1 SWAP2 MSTORE SWAP1 KECCAK256 PUSH1 0x1 ADD SLOAD PUSH2 0xB29 JUMP JUMPDEST POP PUSH1 0x0 JUMPDEST SWAP3 SWAP2 POP POP JUMP JUMPDEST PUSH1 0x0 PUSH2 0xB3B DUP4 DUP4 PUSH2 0x1C08 JUMP JUMPDEST PUSH2 0xB45 DUP4 DUP4 PUSH2 0x1E64 JUMP JUMPDEST ISZERO PUSH2 0xB25 JUMPI PUSH1 0x3 SLOAD PUSH1 0x1 PUSH1 0x1 PUSH1 0xA0 SHL SUB DUP5 DUP2 AND PUSH1 0x0 SWAP1 DUP2 MSTORE PUSH1 0x5 PUSH1 0x20 SWAP1 DUP2 MSTORE PUSH1 0x40 DUP1 DUP4 KECCAK256 DUP8 DUP5 MSTORE DUP3 MSTORE SWAP2 DUP3 SWAP1 KECCAK256 PUSH1 0x1 ADD SLOAD DUP3 MLOAD PUSH4 0x61FE24A9 PUSH1 0xE1 SHL DUP2 MSTORE PUSH1 0x4 DUP2 ADD SWAP2 SWAP1 SWAP2 MSTORE SWAP2 MLOAD PUSH2 0xC10 SWAP5 SWAP4 SWAP1 SWAP4 AND SWAP3 PUSH4 0xC3FC4952 SWAP3 PUSH1 0x24 DUP1 DUP3 ADD SWAP4 SWAP3 SWAP2 DUP3 SWAP1 SUB ADD DUP2 DUP7 DUP1 EXTCODESIZE ISZERO DUP1 ISZERO PUSH2 0xBB7 JUMPI PUSH1 0x0 DUP1 REVERT JUMPDEST POP GAS STATICCALL ISZERO DUP1 ISZERO PUSH2 0xBCB JUMPI RETURNDATASIZE PUSH1 0x0 DUP1 RETURNDATACOPY RETURNDATASIZE PUSH1 0x0 REVERT JUMPDEST POP POP POP POP PUSH1 0x40 MLOAD RETURNDATASIZE PUSH1 0x20 DUP2 LT ISZERO PUSH2 0xBE1 JUMPI PUSH1 0x0 DUP1 REVERT JUMPDEST POP MLOAD PUSH1 0x1 PUSH1 0x1 PUSH1 0xA0 SHL SUB DUP6 AND PUSH1 0x0 SWAP1 DUP2 MSTORE PUSH1 0x5 PUSH1 0x20 SWAP1 DUP2 MSTORE PUSH1 0x40 DUP1 DUP4 KECCAK256 DUP8 DUP5 MSTORE SWAP1 SWAP2 MSTORE SWAP1 KECCAK256 PUSH1 0x1 ADD SLOAD SWAP1 PUSH2 0x1F06 JUMP JUMPDEST SWAP1 POP PUSH2 0xB29 JUMP JUMPDEST PUSH2 0xC21 DUP3 DUP3 PUSH2 0x1C08 JUMP JUMPDEST PUSH2 0xC2B DUP3 DUP3 PUSH2 0x1D3F JUMP JUMPDEST PUSH2 0xC35 DUP3 DUP3 PUSH2 0x1F60 JUMP JUMPDEST PUSH2 0xC70 JUMPI PUSH1 0x40 MLOAD PUSH3 0x461BCD PUSH1 0xE5 SHL DUP2 MSTORE PUSH1 0x4 ADD DUP1 DUP1 PUSH1 0x20 ADD DUP3 DUP2 SUB DUP3 MSTORE PUSH1 0x32 DUP2 MSTORE PUSH1 0x20 ADD DUP1 PUSH2 0x292D PUSH1 0x32 SWAP2 CODECOPY PUSH1 0x40 ADD SWAP2 POP POP PUSH1 0x40 MLOAD DUP1 SWAP2 SUB SWAP1 REVERT JUMPDEST PUSH2 0xC78 PUSH2 0x26D8 JUMP JUMPDEST POP PUSH1 0x1 PUSH1 0x1 PUSH1 0xA0 SHL SUB DUP3 DUP2 AND PUSH1 0x0 SWAP1 DUP2 MSTORE PUSH1 0x6 PUSH1 0x20 SWAP1 DUP2 MSTORE PUSH1 0x40 DUP1 DUP4 KECCAK256 DUP6 DUP5 MSTORE DUP3 MSTORE SWAP2 DUP3 SWAP1 KECCAK256 DUP3 MLOAD PUSH1 0x60 DUP2 ADD DUP5 MSTORE DUP2 SLOAD SWAP5 DUP6 AND DUP2 MSTORE PUSH1 0x1 PUSH1 0xA0 SHL SWAP1 SWAP5 DIV PUSH1 0xFF AND SWAP2 DUP5 ADD SWAP2 SWAP1 SWAP2 MSTORE PUSH1 0x1 ADD SLOAD SWAP1 DUP3 ADD MSTORE PUSH2 0xCD1 DUP4 DUP4 PUSH2 0x1E11 JUMP JUMPDEST PUSH2 0xCDB DUP4 DUP4 PUSH2 0x1F8A JUMP JUMPDEST DUP1 MLOAD PUSH1 0x40 DUP1 MLOAD PUSH4 0x21421707 PUSH1 0xE1 SHL DUP2 MSTORE CALLER PUSH1 0x4 DUP3 ADD MSTORE PUSH1 0x1 PUSH1 0x1 PUSH1 0xA0 SHL SUB SWAP3 DUP4 AND PUSH1 0x24 DUP3 ADD MSTORE PUSH1 0x44 DUP2 ADD DUP6 SWAP1 MSTORE SWAP1 MLOAD DUP6 SWAP3 DUP4 AND SWAP2 PUSH4 0x42842E0E SWAP2 PUSH1 0x64 DUP1 DUP4 ADD SWAP3 PUSH1 0x0 SWAP3 SWAP2 SWAP1 DUP3 SWAP1 SUB ADD DUP2 DUP4 DUP8 DUP1 EXTCODESIZE ISZERO DUP1 ISZERO PUSH2 0xD35 JUMPI PUSH1 0x0 DUP1 REVERT JUMPDEST POP GAS CALL ISZERO DUP1 ISZERO PUSH2 0xD49 JUMPI RETURNDATASIZE PUSH1 0x0 DUP1 RETURNDATACOPY RETURNDATASIZE PUSH1 0x0 REVERT JUMPDEST POP POP POP POP PUSH1 0x0 PUSH2 0xD5F PUSH2 0xD5A PUSH2 0xACE JUMP JUMPDEST PUSH2 0x1FFE JUMP JUMPDEST PUSH1 0x40 DUP1 DUP6 ADD MLOAD PUSH1 0x3 SLOAD DUP3 MLOAD PUSH4 0x1446F213 PUSH1 0xE2 SHL DUP2 MSTORE PUSH1 0x1 PUSH1 0x1 PUSH1 0xA0 SHL SUB DUP11 DUP2 AND PUSH1 0x4 DUP4 ADD MSTORE PUSH1 0x24 DUP3 ADD DUP11 SWAP1 MSTORE SWAP4 MLOAD SWAP5 SWAP6 POP PUSH2 0xFE7 SWAP5 SWAP3 SWAP4 SWAP1 SWAP2 AND SWAP2 PUSH4 0x511BC84C SWAP2 PUSH1 0x44 DUP1 DUP3 ADD SWAP3 PUSH1 0x20 SWAP3 SWAP1 SWAP2 SWAP1 DUP3 SWAP1 SUB ADD DUP2 DUP7 DUP1 EXTCODESIZE ISZERO DUP1 ISZERO PUSH2 0xDC0 JUMPI PUSH1 0x0 DUP1 REVERT JUMPDEST POP GAS STATICCALL ISZERO DUP1 ISZERO PUSH2 0xDD4 JUMPI RETURNDATASIZE PUSH1 0x0 DUP1 RETURNDATACOPY RETURNDATASIZE PUSH1 0x0 REVERT JUMPDEST POP POP POP POP PUSH1 0x40 MLOAD RETURNDATASIZE PUSH1 0x20 DUP2 LT ISZERO PUSH2 0xDEA JUMPI PUSH1 0x0 DUP1 REVERT JUMPDEST POP MLOAD PUSH1 0x3 SLOAD PUSH1 0x40 DUP1 MLOAD PUSH4 0x83475921 PUSH1 0xE0 SHL DUP2 MSTORE SWAP1 MLOAD SWAP3 ISZERO SWAP3 PUSH1 0x1 PUSH1 0x1 PUSH1 0xA0 SHL SUB SWAP1 SWAP3 AND SWAP2 PUSH4 0x83475921 SWAP2 PUSH1 0x4 DUP1 DUP3 ADD SWAP3 PUSH1 0x20 SWAP3 SWAP1 SWAP2 SWAP1 DUP3 SWAP1 SUB ADD DUP2 DUP7 DUP1 EXTCODESIZE ISZERO DUP1 ISZERO PUSH2 0xE34 JUMPI PUSH1 0x0 DUP1 REVERT JUMPDEST POP GAS STATICCALL ISZERO DUP1 ISZERO PUSH2 0xE48 JUMPI RETURNDATASIZE PUSH1 0x0 DUP1 RETURNDATACOPY RETURNDATASIZE PUSH1 0x0 REVERT JUMPDEST POP POP POP POP PUSH1 0x40 MLOAD RETURNDATASIZE PUSH1 0x20 DUP2 LT ISZERO PUSH2 0xE5E JUMPI PUSH1 0x0 DUP1 REVERT JUMPDEST POP MLOAD PUSH1 0x4 DUP1 SLOAD PUSH1 0x40 DUP1 MLOAD PUSH4 0x7C0329F7 PUSH1 0xE0 SHL DUP2 MSTORE PUSH1 0x1 PUSH1 0x1 PUSH1 0xA0 SHL SUB DUP14 DUP2 AND SWAP5 DUP3 ADD SWAP5 SWAP1 SWAP5 MSTORE PUSH1 0x24 DUP2 ADD DUP13 SWAP1 MSTORE SWAP1 MLOAD SWAP3 SWAP1 SWAP2 AND SWAP2 PUSH4 0x7C0329F7 SWAP2 PUSH1 0x44 DUP1 DUP3 ADD SWAP3 PUSH1 0x20 SWAP3 SWAP1 SWAP2 SWAP1 DUP3 SWAP1 SUB ADD DUP2 DUP7 DUP1 EXTCODESIZE ISZERO DUP1 ISZERO PUSH2 0xEB8 JUMPI PUSH1 0x0 DUP1 REVERT JUMPDEST POP GAS STATICCALL ISZERO DUP1 ISZERO PUSH2 0xECC JUMPI RETURNDATASIZE PUSH1 0x0 DUP1 RETURNDATACOPY RETURNDATASIZE PUSH1 0x0 REVERT JUMPDEST POP POP POP POP PUSH1 0x40 MLOAD RETURNDATASIZE PUSH1 0x20 DUP2 LT ISZERO PUSH2 0xEE2 JUMPI PUSH1 0x0 DUP1 REVERT JUMPDEST POP MLOAD PUSH1 0x3 SLOAD PUSH1 0x40 DUP1 MLOAD PUSH4 0xB28A7BAD PUSH1 0xE0 SHL DUP2 MSTORE PUSH1 0x1 PUSH1 0x1 PUSH1 0xA0 SHL SUB DUP14 DUP2 AND PUSH1 0x4 DUP4 ADD MSTORE SWAP2 MLOAD SWAP2 SWAP1 SWAP3 AND SWAP2 PUSH4 0xB28A7BAD SWAP2 PUSH1 0x24 DUP1 DUP4 ADD SWAP3 PUSH1 0x20 SWAP3 SWAP2 SWAP1 DUP3 SWAP1 SUB ADD DUP2 DUP7 DUP1 EXTCODESIZE ISZERO DUP1 ISZERO PUSH2 0xF31 JUMPI PUSH1 0x0 DUP1 REVERT JUMPDEST POP GAS STATICCALL ISZERO DUP1 ISZERO PUSH2 0xF45 JUMPI RETURNDATASIZE PUSH1 0x0 DUP1 RETURNDATACOPY RETURNDATASIZE PUSH1 0x0 REVERT JUMPDEST POP POP POP POP PUSH1 0x40 MLOAD RETURNDATASIZE PUSH1 0x20 DUP2 LT ISZERO PUSH2 0xF5B JUMPI PUSH1 0x0 DUP1 REVERT JUMPDEST POP MLOAD PUSH1 0x4 DUP1 SLOAD PUSH1 0x40 DUP1 MLOAD PUSH4 0x2E17B5F9 PUSH1 0xE2 SHL DUP2 MSTORE PUSH1 0x1 PUSH1 0x1 PUSH1 0xA0 SHL SUB DUP16 DUP2 AND SWAP5 DUP3 ADD SWAP5 SWAP1 SWAP5 MSTORE PUSH1 0x24 DUP2 ADD DUP15 SWAP1 MSTORE SWAP1 MLOAD CALLER SWAP4 DUP12 SWAP4 AND SWAP2 PUSH4 0xB85ED7E4 SWAP2 PUSH1 0x44 DUP1 DUP4 ADD SWAP3 PUSH1 0x20 SWAP3 SWAP2 SWAP1 DUP3 SWAP1 SUB ADD DUP2 DUP7 DUP1 EXTCODESIZE ISZERO DUP1 ISZERO PUSH2 0xFB5 JUMPI PUSH1 0x0 DUP1 REVERT JUMPDEST POP GAS STATICCALL ISZERO DUP1 ISZERO PUSH2 0xFC9 JUMPI RETURNDATASIZE PUSH1 0x0 DUP1 RETURNDATACOPY RETURNDATASIZE PUSH1 0x0 REVERT JUMPDEST POP POP POP POP PUSH1 0x40 MLOAD RETURNDATASIZE PUSH1 0x20 DUP2 LT ISZERO PUSH2 0xFDF JUMPI PUSH1 0x0 DUP1 REVERT JUMPDEST POP MLOAD DUP10 PUSH2 0x2001 JUMP JUMPDEST PUSH1 0x3 SLOAD PUSH1 0x40 DUP1 MLOAD PUSH4 0x5A3C652D PUSH1 0xE0 SHL DUP2 MSTORE PUSH1 0x1 PUSH1 0x1 PUSH1 0xA0 SHL SUB DUP9 DUP2 AND PUSH1 0x4 DUP4 ADD MSTORE PUSH1 0x24 DUP3 ADD DUP9 SWAP1 MSTORE PUSH1 0x1 PUSH1 0x44 DUP4 ADD MSTORE SWAP2 MLOAD SWAP2 SWAP1 SWAP3 AND SWAP2 PUSH4 0x5A3C652D SWAP2 PUSH1 0x64 DUP1 DUP4 ADD SWAP3 PUSH1 0x0 SWAP3 SWAP2 SWAP1 DUP3 SWAP1 SUB ADD DUP2 DUP4 DUP8 DUP1 EXTCODESIZE ISZERO DUP1 ISZERO PUSH2 0x1043 JUMPI PUSH1 0x0 DUP1 REVERT JUMPDEST POP GAS CALL ISZERO DUP1 ISZERO PUSH2 0x1057 JUMPI RETURNDATASIZE PUSH1 0x0 DUP1 RETURNDATACOPY RETURNDATASIZE PUSH1 0x0 REVERT JUMPDEST POP POP POP POP CALLER PUSH1 0x1 PUSH1 0x1 PUSH1 0xA0 SHL SUB AND DUP4 PUSH1 0x0 ADD MLOAD PUSH1 0x1 PUSH1 0x1 PUSH1 0xA0 SHL SUB AND DUP7 PUSH1 0x1 PUSH1 0x1 PUSH1 0xA0 SHL SUB AND PUSH32 0x2A9D06EEC42ACD217A17785DBEC90B8B4F01A93ECD8C127EDD36BFCCF239F8B6 DUP7 PUSH1 0x40 ADD MLOAD DUP9 PUSH1 0x40 MLOAD DUP1 DUP4 DUP2 MSTORE PUSH1 0x20 ADD DUP3 DUP2 MSTORE PUSH1 0x20 ADD SWAP3 POP POP POP PUSH1 0x40 MLOAD DUP1 SWAP2 SUB SWAP1 LOG4 POP POP POP POP POP JUMP JUMPDEST PUSH1 0x3 SLOAD PUSH1 0x1 PUSH1 0x1 PUSH1 0xA0 SHL SUB AND DUP2 JUMP JUMPDEST PUSH1 0x0 DUP4 GT PUSH2 0x1124 JUMPI PUSH1 0x40 DUP1 MLOAD PUSH3 0x461BCD PUSH1 0xE5 SHL DUP2 MSTORE PUSH1 0x20 PUSH1 0x4 DUP3 ADD MSTORE PUSH1 0x16 PUSH1 0x24 DUP3 ADD MSTORE PUSH22 0x3134B21D1D21B0B73737BA103134B21018102BB2B497 PUSH1 0x51 SHL PUSH1 0x44 DUP3 ADD MSTORE SWAP1 MLOAD SWAP1 DUP2 SWAP1 SUB PUSH1 0x64 ADD SWAP1 REVERT JUMPDEST PUSH1 0x1 PUSH1 0x1 PUSH1 0xA0 SHL SUB DUP3 AND PUSH1 0x0 SWAP1 DUP2 MSTORE PUSH1 0x6 PUSH1 0x20 SWAP1 DUP2 MSTORE PUSH1 0x40 DUP1 DUP4 KECCAK256 DUP5 DUP5 MSTORE SWAP1 SWAP2 MSTORE SWAP1 KECCAK256 PUSH1 0x1 ADD SLOAD DUP1 DUP5 GT DUP1 ISZERO PUSH2 0x1182 JUMPI POP PUSH1 0x7 SLOAD PUSH2 0x117E SWAP1 PUSH2 0x1177 SWAP1 PUSH1 0x64 SWAP1 PUSH2 0x1171 SWAP1 DUP6 SWAP1 PUSH1 0xFF AND PUSH2 0x21D3 JUMP JUMPDEST SWAP1 PUSH2 0x222C JUMP JUMPDEST DUP3 SWAP1 PUSH2 0x1F06 JUMP JUMPDEST DUP5 LT ISZERO JUMPDEST PUSH2 0x11BD JUMPI PUSH1 0x40 MLOAD PUSH3 0x461BCD PUSH1 0xE5 SHL DUP2 MSTORE PUSH1 0x4 ADD DUP1 DUP1 PUSH1 0x20 ADD DUP3 DUP2 SUB DUP3 MSTORE PUSH1 0x42 DUP2 MSTORE PUSH1 0x20 ADD DUP1 PUSH2 0x2A99 PUSH1 0x42 SWAP2 CODECOPY PUSH1 0x60 ADD SWAP2 POP POP PUSH1 0x40 MLOAD DUP1 SWAP2 SUB SWAP1 REVERT JUMPDEST PUSH1 0x3 SLOAD PUSH1 0x40 DUP1 MLOAD PUSH4 0x61FE24A9 PUSH1 0xE1 SHL DUP2 MSTORE PUSH1 0x4 DUP2 ADD DUP8 SWAP1 MSTORE SWAP1 MLOAD PUSH1 0x0 SWAP3 PUSH2 0x1243 SWAP3 PUSH1 0x1 PUSH1 0x1 PUSH1 0xA0 SHL SUB SWAP1 SWAP2 AND SWAP2 PUSH4 0xC3FC4952 SWAP2 PUSH1 0x24 DUP1 DUP3 ADD SWAP3 PUSH1 0x20 SWAP3 SWAP1 SWAP2 SWAP1 DUP3 SWAP1 SUB ADD DUP2 DUP7 DUP1 EXTCODESIZE ISZERO DUP1 ISZERO PUSH2 0x1210 JUMPI PUSH1 0x0 DUP1 REVERT JUMPDEST POP GAS STATICCALL ISZERO DUP1 ISZERO PUSH2 0x1224 JUMPI RETURNDATASIZE PUSH1 0x0 DUP1 RETURNDATACOPY RETURNDATASIZE PUSH1 0x0 REVERT JUMPDEST POP POP POP POP PUSH1 0x40 MLOAD RETURNDATASIZE PUSH1 0x20 DUP2 LT ISZERO PUSH2 0x123A JUMPI PUSH1 0x0 DUP1 REVERT JUMPDEST POP MLOAD DUP7 SWAP1 PUSH2 0x1F06 JUMP JUMPDEST SWAP1 POP CALLVALUE DUP2 EQ PUSH2 0x1283 JUMPI PUSH1 0x40 MLOAD PUSH3 0x461BCD PUSH1 0xE5 SHL DUP2 MSTORE PUSH1 0x4 ADD DUP1 DUP1 PUSH1 0x20 ADD DUP3 DUP2 SUB DUP3 MSTORE PUSH1 0x33 DUP2 MSTORE PUSH1 0x20 ADD DUP1 PUSH2 0x2881 PUSH1 0x33 SWAP2 CODECOPY PUSH1 0x40 ADD SWAP2 POP POP PUSH1 0x40 MLOAD DUP1 SWAP2 SUB SWAP1 REVERT JUMPDEST PUSH1 0x0 DUP5 SWAP1 POP PUSH1 0x0 DUP2 PUSH1 0x1 PUSH1 0x1 PUSH1 0xA0 SHL SUB AND PUSH4 0x6352211E DUP7 PUSH1 0x40 MLOAD DUP3 PUSH4 0xFFFFFFFF AND PUSH1 0xE0 SHL DUP2 MSTORE PUSH1 0x4 ADD DUP1 DUP3 DUP2 MSTORE PUSH1 0x20 ADD SWAP2 POP POP PUSH1 0x20 PUSH1 0x40 MLOAD DUP1 DUP4 SUB DUP2 DUP7 DUP1 EXTCODESIZE ISZERO DUP1 ISZERO PUSH2 0x12CE JUMPI PUSH1 0x0 DUP1 REVERT JUMPDEST POP GAS STATICCALL ISZERO DUP1 ISZERO PUSH2 0x12E2 JUMPI RETURNDATASIZE PUSH1 0x0 DUP1 RETURNDATACOPY RETURNDATASIZE PUSH1 0x0 REVERT JUMPDEST POP POP POP POP PUSH1 0x40 MLOAD RETURNDATASIZE PUSH1 0x20 DUP2 LT ISZERO PUSH2 0x12F8 JUMPI PUSH1 0x0 DUP1 REVERT JUMPDEST POP MLOAD SWAP1 POP PUSH1 0x1 PUSH1 0x1 PUSH1 0xA0 SHL SUB DUP2 AND CALLER EQ ISZERO PUSH2 0x135A JUMPI PUSH1 0x40 DUP1 MLOAD PUSH3 0x461BCD PUSH1 0xE5 SHL DUP2 MSTORE PUSH1 0x20 PUSH1 0x4 DUP3 ADD MSTORE PUSH1 0x1C PUSH1 0x24 DUP3 ADD MSTORE PUSH32 0x6269643A3A4269646465722063616E6E6F74206265206F776E65722E00000000 PUSH1 0x44 DUP3 ADD MSTORE SWAP1 MLOAD SWAP1 DUP2 SWAP1 SUB PUSH1 0x64 ADD SWAP1 REVERT JUMPDEST PUSH2 0x1364 DUP7 DUP7 PUSH2 0x1B7D JUMP JUMPDEST PUSH2 0x1370 DUP8 CALLER DUP9 DUP9 PUSH2 0x2293 JUMP JUMPDEST PUSH1 0x40 DUP1 MLOAD DUP9 DUP2 MSTORE PUSH1 0x20 DUP2 ADD DUP8 SWAP1 MSTORE DUP2 MLOAD CALLER SWAP3 PUSH1 0x1 PUSH1 0x1 PUSH1 0xA0 SHL SUB DUP11 AND SWAP3 PUSH32 0xD21FBAAD97462831AD0C216F300FEFB33A10B03BB18BB70ED668562E88D15D53 SWAP3 SWAP1 DUP2 SWAP1 SUB SWAP1 SWAP2 ADD SWAP1 LOG3 POP POP POP POP POP POP POP JUMP JUMPDEST PUSH1 0x1 PUSH1 0x1 PUSH1 0xA0 SHL SUB DUP4 AND PUSH1 0x0 SWAP1 DUP2 MSTORE PUSH1 0x5 PUSH1 0x20 SWAP1 DUP2 MSTORE PUSH1 0x40 DUP1 DUP4 KECCAK256 DUP6 DUP5 MSTORE SWAP1 SWAP2 MSTORE SWAP1 KECCAK256 PUSH1 0x1 ADD SLOAD DUP2 EQ PUSH2 0x1425 JUMPI PUSH1 0x40 MLOAD PUSH3 0x461BCD PUSH1 0xE5 SHL DUP2 MSTORE PUSH1 0x4 ADD DUP1 DUP1 PUSH1 0x20 ADD DUP3 DUP2 SUB DUP3 MSTORE PUSH1 0x33 DUP2 MSTORE PUSH1 0x20 ADD DUP1 PUSH2 0x27CD PUSH1 0x33 SWAP2 CODECOPY PUSH1 0x40 ADD SWAP2 POP POP PUSH1 0x40 MLOAD DUP1 SWAP2 SUB SWAP1 REVERT JUMPDEST PUSH2 0x9A6 DUP4 DUP4 PUSH2 0x143E JUMP JUMPDEST PUSH1 0x4 SLOAD PUSH1 0x1 PUSH1 0x1 PUSH1 0xA0 SHL SUB AND DUP2 JUMP JUMPDEST PUSH2 0x1448 DUP3 DUP3 PUSH2 0x1C08 JUMP JUMPDEST PUSH2 0x1452 DUP3 DUP3 PUSH2 0x1E64 JUMP JUMPDEST PUSH2 0x148D JUMPI PUSH1 0x40 MLOAD PUSH3 0x461BCD PUSH1 0xE5 SHL DUP2 MSTORE PUSH1 0x4 ADD DUP1 DUP1 PUSH1 0x20 ADD DUP3 DUP2 SUB DUP3 MSTORE PUSH1 0x45 DUP2 MSTORE PUSH1 0x20 ADD DUP1 PUSH2 0x28B4 PUSH1 0x45 SWAP2 CODECOPY PUSH1 0x60 ADD SWAP2 POP POP PUSH1 0x40 MLOAD DUP1 SWAP2 SUB SWAP1 REVERT JUMPDEST PUSH2 0x1495 PUSH2 0x26F8 JUMP JUMPDEST POP PUSH1 0x1 PUSH1 0x1 PUSH1 0xA0 SHL SUB DUP1 DUP4 AND PUSH1 0x0 SWAP1 DUP2 MSTORE PUSH1 0x5 PUSH1 0x20 SWAP1 DUP2 MSTORE PUSH1 0x40 DUP1 DUP4 KECCAK256 DUP6 DUP5 MSTORE DUP3 MSTORE SWAP2 DUP3 SWAP1 KECCAK256 DUP3 MLOAD DUP1 DUP5 ADD SWAP1 SWAP4 MSTORE DUP1 SLOAD SWAP1 SWAP4 AND DUP3 MSTORE PUSH1 0x1 SWAP1 SWAP3 ADD SLOAD SWAP2 DUP2 ADD DUP3 SWAP1 MSTORE SWAP1 PUSH2 0x1512 JUMPI PUSH1 0x40 MLOAD PUSH3 0x461BCD PUSH1 0xE5 SHL DUP2 MSTORE PUSH1 0x4 ADD DUP1 DUP1 PUSH1 0x20 ADD DUP3 DUP2 SUB DUP3 MSTORE PUSH1 0x29 DUP2 MSTORE PUSH1 0x20 ADD DUP1 PUSH2 0x2858 PUSH1 0x29 SWAP2 CODECOPY PUSH1 0x40 ADD SWAP2 POP POP PUSH1 0x40 MLOAD DUP1 SWAP2 SUB SWAP1 REVERT JUMPDEST CALLVALUE PUSH2 0x151D DUP5 DUP5 PUSH2 0xB2F JUMP JUMPDEST EQ PUSH2 0x1559 JUMPI PUSH1 0x40 MLOAD PUSH3 0x461BCD PUSH1 0xE5 SHL DUP2 MSTORE PUSH1 0x4 ADD DUP1 DUP1 PUSH1 0x20 ADD DUP3 DUP2 SUB DUP3 MSTORE PUSH1 0x32 DUP2 MSTORE PUSH1 0x20 ADD DUP1 PUSH2 0x2826 PUSH1 0x32 SWAP2 CODECOPY PUSH1 0x40 ADD SWAP2 POP POP PUSH1 0x40 MLOAD DUP1 SWAP2 SUB SWAP1 REVERT JUMPDEST PUSH1 0x0 DUP4 SWAP1 POP PUSH1 0x0 DUP2 PUSH1 0x1 PUSH1 0x1 PUSH1 0xA0 SHL SUB AND PUSH4 0x6352211E DUP6 PUSH1 0x40 MLOAD DUP3 PUSH4 0xFFFFFFFF AND PUSH1 0xE0 SHL DUP2 MSTORE PUSH1 0x4 ADD DUP1 DUP3 DUP2 MSTORE PUSH1 0x20 ADD SWAP2 POP POP PUSH1 0x20 PUSH1 0x40 MLOAD DUP1 DUP4 SUB DUP2 DUP7 DUP1 EXTCODESIZE ISZERO DUP1 ISZERO PUSH2 0x15A4 JUMPI PUSH1 0x0 DUP1 REVERT JUMPDEST POP GAS STATICCALL ISZERO DUP1 ISZERO PUSH2 0x15B8 JUMPI RETURNDATASIZE PUSH1 0x0 DUP1 RETURNDATACOPY RETURNDATASIZE PUSH1 0x0 REVERT JUMPDEST POP POP POP POP PUSH1 0x40 MLOAD RETURNDATASIZE PUSH1 0x20 DUP2 LT ISZERO PUSH2 0x15CE JUMPI PUSH1 0x0 DUP1 REVERT JUMPDEST POP MLOAD SWAP1 POP PUSH2 0x15DC DUP6 DUP6 PUSH2 0x1E11 JUMP JUMPDEST PUSH1 0x40 DUP1 MLOAD PUSH4 0x21421707 PUSH1 0xE1 SHL DUP2 MSTORE PUSH1 0x1 PUSH1 0x1 PUSH1 0xA0 SHL SUB DUP4 DUP2 AND PUSH1 0x4 DUP4 ADD MSTORE CALLER PUSH1 0x24 DUP4 ADD MSTORE PUSH1 0x44 DUP3 ADD DUP8 SWAP1 MSTORE SWAP2 MLOAD SWAP2 DUP5 AND SWAP2 PUSH4 0x42842E0E SWAP2 PUSH1 0x64 DUP1 DUP3 ADD SWAP3 PUSH1 0x0 SWAP3 SWAP1 SWAP2 SWAP1 DUP3 SWAP1 SUB ADD DUP2 DUP4 DUP8 DUP1 EXTCODESIZE ISZERO DUP1 ISZERO PUSH2 0x1634 JUMPI PUSH1 0x0 DUP1 REVERT JUMPDEST POP GAS CALL ISZERO DUP1 ISZERO PUSH2 0x1648 JUMPI RETURNDATASIZE PUSH1 0x0 DUP1 RETURNDATACOPY RETURNDATASIZE PUSH1 0x0 REVERT JUMPDEST POP POP POP POP PUSH2 0x1657 CALLER DUP7 DUP7 PUSH2 0x1B4A JUMP JUMPDEST ISZERO PUSH2 0x1666 JUMPI PUSH2 0x1666 DUP6 DUP6 PUSH2 0x1B7D JUMP JUMPDEST PUSH1 0x0 PUSH2 0x1673 PUSH2 0xD5A PUSH2 0xACE JUMP JUMPDEST PUSH1 0x20 DUP1 DUP7 ADD MLOAD PUSH1 0x3 SLOAD PUSH1 0x40 DUP1 MLOAD PUSH4 0x1446F213 PUSH1 0xE2 SHL DUP2 MSTORE PUSH1 0x1 PUSH1 0x1 PUSH1 0xA0 SHL SUB DUP13 DUP2 AND PUSH1 0x4 DUP4 ADD MSTORE PUSH1 0x24 DUP3 ADD DUP13 SWAP1 MSTORE SWAP2 MLOAD SWAP6 SWAP7 POP PUSH2 0x18E4 SWAP6 SWAP4 SWAP5 SWAP2 SWAP1 SWAP3 AND SWAP3 PUSH4 0x511BC84C SWAP3 PUSH1 0x44 DUP1 DUP3 ADD SWAP4 SWAP3 SWAP2 DUP3 SWAP1 SUB ADD DUP2 DUP7 DUP1 EXTCODESIZE ISZERO DUP1 ISZERO PUSH2 0x16D3 JUMPI PUSH1 0x0 DUP1 REVERT JUMPDEST POP GAS STATICCALL ISZERO DUP1 ISZERO PUSH2 0x16E7 JUMPI RETURNDATASIZE PUSH1 0x0 DUP1 RETURNDATACOPY RETURNDATASIZE PUSH1 0x0 REVERT JUMPDEST POP POP POP POP PUSH1 0x40 MLOAD RETURNDATASIZE PUSH1 0x20 DUP2 LT ISZERO PUSH2 0x16FD JUMPI PUSH1 0x0 DUP1 REVERT JUMPDEST POP MLOAD PUSH1 0x3 SLOAD PUSH1 0x40 DUP1 MLOAD PUSH4 0x83475921 PUSH1 0xE0 SHL DUP2 MSTORE SWAP1 MLOAD SWAP3 ISZERO SWAP3 PUSH1 0x1 PUSH1 0x1 PUSH1 0xA0 SHL SUB SWAP1 SWAP3 AND SWAP2 PUSH4 0x83475921 SWAP2 PUSH1 0x4 DUP1 DUP3 ADD SWAP3 PUSH1 0x20 SWAP3 SWAP1 SWAP2 SWAP1 DUP3 SWAP1 SUB ADD DUP2 DUP7 DUP1 EXTCODESIZE ISZERO DUP1 ISZERO PUSH2 0x1747 JUMPI PUSH1 0x0 DUP1 REVERT JUMPDEST POP GAS STATICCALL ISZERO DUP1 ISZERO PUSH2 0x175B JUMPI RETURNDATASIZE PUSH1 0x0 DUP1 RETURNDATACOPY RETURNDATASIZE PUSH1 0x0 REVERT JUMPDEST POP POP POP POP PUSH1 0x40 MLOAD RETURNDATASIZE PUSH1 0x20 DUP2 LT ISZERO PUSH2 0x1771 JUMPI PUSH1 0x0 DUP1 REVERT JUMPDEST POP MLOAD PUSH1 0x4 DUP1 SLOAD PUSH1 0x40 DUP1 MLOAD PUSH4 0x7C0329F7 PUSH1 0xE0 SHL DUP2 MSTORE PUSH1 0x1 PUSH1 0x1 PUSH1 0xA0 SHL SUB DUP15 DUP2 AND SWAP5 DUP3 ADD SWAP5 SWAP1 SWAP5 MSTORE PUSH1 0x24 DUP2 ADD DUP14 SWAP1 MSTORE SWAP1 MLOAD SWAP3 SWAP1 SWAP2 AND SWAP2 PUSH4 0x7C0329F7 SWAP2 PUSH1 0x44 DUP1 DUP3 ADD SWAP3 PUSH1 0x20 SWAP3 SWAP1 SWAP2 SWAP1 DUP3 SWAP1 SUB ADD DUP2 DUP7 DUP1 EXTCODESIZE ISZERO DUP1 ISZERO PUSH2 0x17CB JUMPI PUSH1 0x0 DUP1 REVERT JUMPDEST POP GAS STATICCALL ISZERO DUP1 ISZERO PUSH2 0x17DF JUMPI RETURNDATASIZE PUSH1 0x0 DUP1 RETURNDATACOPY RETURNDATASIZE PUSH1 0x0 REVERT JUMPDEST POP POP POP POP PUSH1 0x40 MLOAD RETURNDATASIZE PUSH1 0x20 DUP2 LT ISZERO PUSH2 0x17F5 JUMPI PUSH1 0x0 DUP1 REVERT JUMPDEST POP MLOAD PUSH1 0x3 SLOAD PUSH1 0x40 DUP1 MLOAD PUSH4 0xB28A7BAD PUSH1 0xE0 SHL DUP2 MSTORE PUSH1 0x1 PUSH1 0x1 PUSH1 0xA0 SHL SUB DUP15 DUP2 AND PUSH1 0x4 DUP4 ADD MSTORE SWAP2 MLOAD SWAP2 SWAP1 SWAP3 AND SWAP2 PUSH4 0xB28A7BAD SWAP2 PUSH1 0x24 DUP1 DUP4 ADD SWAP3 PUSH1 0x20 SWAP3 SWAP2 SWAP1 DUP3 SWAP1 SUB ADD DUP2 DUP7 DUP1 EXTCODESIZE ISZERO DUP1 ISZERO PUSH2 0x1844 JUMPI PUSH1 0x0 DUP1 REVERT JUMPDEST POP GAS STATICCALL ISZERO DUP1 ISZERO PUSH2 0x1858 JUMPI RETURNDATASIZE PUSH1 0x0 DUP1 RETURNDATACOPY RETURNDATASIZE PUSH1 0x0 REVERT JUMPDEST POP POP POP POP PUSH1 0x40 MLOAD RETURNDATASIZE PUSH1 0x20 DUP2 LT ISZERO PUSH2 0x186E JUMPI PUSH1 0x0 DUP1 REVERT JUMPDEST POP MLOAD PUSH2 0x1879 DUP9 PUSH2 0x1FFE JUMP JUMPDEST DUP8 PUSH1 0x4 PUSH1 0x0 SWAP1 SLOAD SWAP1 PUSH2 0x100 EXP SWAP1 DIV PUSH1 0x1 PUSH1 0x1 PUSH1 0xA0 SHL SUB AND PUSH1 0x1 PUSH1 0x1 PUSH1 0xA0 SHL SUB AND PUSH4 0xB85ED7E4 DUP16 DUP16 PUSH1 0x40 MLOAD DUP4 PUSH4 0xFFFFFFFF AND PUSH1 0xE0 SHL DUP2 MSTORE PUSH1 0x4 ADD DUP1 DUP4 PUSH1 0x1 PUSH1 0x1 PUSH1 0xA0 SHL SUB AND DUP2 MSTORE PUSH1 0x20 ADD DUP3 DUP2 MSTORE PUSH1 0x20 ADD SWAP3 POP POP POP PUSH1 0x20 PUSH1 0x40 MLOAD DUP1 DUP4 SUB DUP2 DUP7 DUP1 EXTCODESIZE ISZERO DUP1 ISZERO PUSH2 0xFB5 JUMPI PUSH1 0x0 DUP1 REVERT JUMPDEST PUSH1 0x3 SLOAD PUSH1 0x40 DUP1 MLOAD PUSH4 0x5A3C652D PUSH1 0xE0 SHL DUP2 MSTORE PUSH1 0x1 PUSH1 0x1 PUSH1 0xA0 SHL SUB DUP10 DUP2 AND PUSH1 0x4 DUP4 ADD MSTORE PUSH1 0x24 DUP3 ADD DUP10 SWAP1 MSTORE PUSH1 0x1 PUSH1 0x44 DUP4 ADD MSTORE SWAP2 MLOAD SWAP2 SWAP1 SWAP3 AND SWAP2 PUSH4 0x5A3C652D SWAP2 PUSH1 0x64 DUP1 DUP4 ADD SWAP3 PUSH1 0x0 SWAP3 SWAP2 SWAP1 DUP3 SWAP1 SUB ADD DUP2 DUP4 DUP8 DUP1 EXTCODESIZE ISZERO DUP1 ISZERO PUSH2 0x1940 JUMPI PUSH1 0x0 DUP1 REVERT JUMPDEST POP GAS CALL ISZERO DUP1 ISZERO PUSH2 0x1954 JUMPI RETURNDATASIZE PUSH1 0x0 DUP1 RETURNDATACOPY RETURNDATASIZE PUSH1 0x0 REVERT JUMPDEST POP POP POP POP DUP2 PUSH1 0x1 PUSH1 0x1 PUSH1 0xA0 SHL SUB AND CALLER PUSH1 0x1 PUSH1 0x1 PUSH1 0xA0 SHL SUB AND DUP8 PUSH1 0x1 PUSH1 0x1 PUSH1 0xA0 SHL SUB AND PUSH32 0x5764DBCEF91EB6F946584F4EA671217C686FA7E858CE4F9F42D08422B86556A9 DUP8 PUSH1 0x20 ADD MLOAD DUP10 PUSH1 0x40 MLOAD DUP1 DUP4 DUP2 MSTORE PUSH1 0x20 ADD DUP3 DUP2 MSTORE PUSH1 0x20 ADD SWAP3 POP POP POP PUSH1 0x40 MLOAD DUP1 SWAP2 SUB SWAP1 LOG4 POP POP POP POP POP POP JUMP JUMPDEST PUSH1 0x2 SLOAD PUSH1 0x40 DUP1 MLOAD PUSH4 0x71D4ED8D PUSH1 0xE1 SHL DUP2 MSTORE PUSH1 0x1 PUSH1 0x1 PUSH1 0xA0 SHL SUB DUP5 DUP2 AND PUSH1 0x4 DUP4 ADD MSTORE SWAP2 MLOAD PUSH1 0x0 SWAP4 SWAP3 SWAP1 SWAP3 AND SWAP2 PUSH4 0xE3A9DB1A SWAP2 PUSH1 0x24 DUP1 DUP3 ADD SWAP3 PUSH1 0x20 SWAP3 SWAP1 SWAP2 SWAP1 DUP3 SWAP1 SUB ADD DUP2 DUP7 DUP1 EXTCODESIZE ISZERO DUP1 ISZERO PUSH2 0x1A12 JUMPI PUSH1 0x0 DUP1 REVERT JUMPDEST POP GAS STATICCALL ISZERO DUP1 ISZERO PUSH2 0x1A26 JUMPI RETURNDATASIZE PUSH1 0x0 DUP1 RETURNDATACOPY RETURNDATASIZE PUSH1 0x0 REVERT JUMPDEST POP POP POP POP PUSH1 0x40 MLOAD RETURNDATASIZE PUSH1 0x20 DUP2 LT ISZERO PUSH2 0x1A3C JUMPI PUSH1 0x0 DUP1 REVERT JUMPDEST POP MLOAD SWAP3 SWAP2 POP POP JUMP JUMPDEST PUSH2 0x1A4C PUSH2 0x1B46 JUMP JUMPDEST PUSH1 0x1 PUSH1 0x1 PUSH1 0xA0 SHL SUB AND PUSH2 0x1A5D PUSH2 0xACE JUMP JUMPDEST PUSH1 0x1 PUSH1 0x1 PUSH1 0xA0 SHL SUB AND EQ PUSH2 0x1AA6 JUMPI PUSH1 0x40 DUP1 MLOAD PUSH3 0x461BCD PUSH1 0xE5 SHL DUP2 MSTORE PUSH1 0x20 PUSH1 0x4 DUP3 ADD DUP2 SWAP1 MSTORE PUSH1 0x24 DUP3 ADD MSTORE PUSH1 0x0 DUP1 MLOAD PUSH1 0x20 PUSH2 0x2A79 DUP4 CODECOPY DUP2 MLOAD SWAP2 MSTORE PUSH1 0x44 DUP3 ADD MSTORE SWAP1 MLOAD SWAP1 DUP2 SWAP1 SUB PUSH1 0x64 ADD SWAP1 REVERT JUMPDEST PUSH1 0x1 PUSH1 0x1 PUSH1 0xA0 SHL SUB DUP2 AND PUSH2 0x1AEB JUMPI PUSH1 0x40 MLOAD PUSH3 0x461BCD PUSH1 0xE5 SHL DUP2 MSTORE PUSH1 0x4 ADD DUP1 DUP1 PUSH1 0x20 ADD DUP3 DUP2 SUB DUP3 MSTORE PUSH1 0x26 DUP2 MSTORE PUSH1 0x20 ADD DUP1 PUSH2 0x2800 PUSH1 0x26 SWAP2 CODECOPY PUSH1 0x40 ADD SWAP2 POP POP PUSH1 0x40 MLOAD DUP1 SWAP2 SUB SWAP1 REVERT JUMPDEST PUSH1 0x0 DUP1 SLOAD PUSH1 0x40 MLOAD PUSH1 0x1 PUSH1 0x1 PUSH1 0xA0 SHL SUB DUP1 DUP6 AND SWAP4 SWAP3 AND SWAP2 PUSH32 0x8BE0079C531659141344CD1FD0A4F28419497F9722A3DAAFE3B4186F6B6457E0 SWAP2 LOG3 PUSH1 0x0 DUP1 SLOAD PUSH1 0x1 PUSH1 0x1 PUSH1 0xA0 SHL SUB NOT AND PUSH1 0x1 PUSH1 0x1 PUSH1 0xA0 SHL SUB SWAP3 SWAP1 SWAP3 AND SWAP2 SWAP1 SWAP2 OR SWAP1 SSTORE JUMP JUMPDEST CALLER SWAP1 JUMP JUMPDEST PUSH1 0x1 PUSH1 0x1 PUSH1 0xA0 SHL SUB DUP3 DUP2 AND PUSH1 0x0 SWAP1 DUP2 MSTORE PUSH1 0x6 PUSH1 0x20 SWAP1 DUP2 MSTORE PUSH1 0x40 DUP1 DUP4 KECCAK256 DUP6 DUP5 MSTORE SWAP1 SWAP2 MSTORE SWAP1 KECCAK256 SLOAD DUP2 AND SWAP1 DUP5 AND EQ JUMPDEST SWAP4 SWAP3 POP POP POP JUMP JUMPDEST PUSH2 0x1B85 PUSH2 0x26D8 JUMP JUMPDEST POP PUSH1 0x1 PUSH1 0x1 PUSH1 0xA0 SHL SUB DUP3 DUP2 AND PUSH1 0x0 SWAP1 DUP2 MSTORE PUSH1 0x6 PUSH1 0x20 SWAP1 DUP2 MSTORE PUSH1 0x40 DUP1 DUP4 KECCAK256 DUP6 DUP5 MSTORE DUP3 MSTORE SWAP2 DUP3 SWAP1 KECCAK256 DUP3 MLOAD PUSH1 0x60 DUP2 ADD DUP5 MSTORE DUP2 SLOAD SWAP5 DUP6 AND DUP1 DUP3 MSTORE PUSH1 0x1 PUSH1 0xA0 SHL SWAP1 SWAP6 DIV PUSH1 0xFF AND SWAP3 DUP2 ADD SWAP3 SWAP1 SWAP3 MSTORE PUSH1 0x1 ADD SLOAD SWAP2 DUP2 ADD SWAP2 SWAP1 SWAP2 MSTORE SWAP1 PUSH2 0x1BE3 JUMPI POP PUSH2 0x1C04 JUMP JUMPDEST PUSH2 0x1BED DUP4 DUP4 PUSH2 0x1F8A JUMP JUMPDEST PUSH2 0x9A6 DUP2 PUSH1 0x20 ADD MLOAD DUP3 PUSH1 0x0 ADD MLOAD DUP4 PUSH1 0x40 ADD MLOAD PUSH2 0x23F6 JUMP JUMPDEST POP POP JUMP JUMPDEST PUSH1 0x0 DUP3 SWAP1 POP PUSH1 0x0 DUP2 PUSH1 0x1 PUSH1 0x1 PUSH1 0xA0 SHL SUB AND PUSH4 0x6352211E DUP5 PUSH1 0x40 MLOAD DUP3 PUSH4 0xFFFFFFFF AND PUSH1 0xE0 SHL DUP2 MSTORE PUSH1 0x4 ADD DUP1 DUP3 DUP2 MSTORE PUSH1 0x20 ADD SWAP2 POP POP PUSH1 0x20 PUSH1 0x40 MLOAD DUP1 DUP4 SUB DUP2 DUP7 DUP1 EXTCODESIZE ISZERO DUP1 ISZERO PUSH2 0x1C53 JUMPI PUSH1 0x0 DUP1 REVERT JUMPDEST POP GAS STATICCALL ISZERO DUP1 ISZERO PUSH2 0x1C67 JUMPI RETURNDATASIZE PUSH1 0x0 DUP1 RETURNDATACOPY RETURNDATASIZE PUSH1 0x0 REVERT JUMPDEST POP POP POP POP PUSH1 0x40 MLOAD RETURNDATASIZE PUSH1 0x20 DUP2 LT ISZERO PUSH2 0x1C7D JUMPI PUSH1 0x0 DUP1 REVERT JUMPDEST POP MLOAD PUSH1 0x40 DUP1 MLOAD PUSH4 0xE985E9C5 PUSH1 0xE0 SHL DUP2 MSTORE PUSH1 0x1 PUSH1 0x1 PUSH1 0xA0 SHL SUB DUP1 DUP5 AND PUSH1 0x4 DUP4 ADD MSTORE ADDRESS PUSH1 0x24 DUP4 ADD MSTORE SWAP2 MLOAD SWAP3 SWAP4 POP SWAP1 DUP5 AND SWAP2 PUSH4 0xE985E9C5 SWAP2 PUSH1 0x44 DUP1 DUP3 ADD SWAP3 PUSH1 0x20 SWAP3 SWAP1 SWAP2 SWAP1 DUP3 SWAP1 SUB ADD DUP2 DUP7 DUP1 EXTCODESIZE ISZERO DUP1 ISZERO PUSH2 0x1CD2 JUMPI PUSH1 0x0 DUP1 REVERT JUMPDEST POP GAS STATICCALL ISZERO DUP1 ISZERO PUSH2 0x1CE6 JUMPI RETURNDATASIZE PUSH1 0x0 DUP1 RETURNDATACOPY RETURNDATASIZE PUSH1 0x0 REVERT JUMPDEST POP POP POP POP PUSH1 0x40 MLOAD RETURNDATASIZE PUSH1 0x20 DUP2 LT ISZERO PUSH2 0x1CFC JUMPI PUSH1 0x0 DUP1 REVERT JUMPDEST POP MLOAD PUSH2 0x1D39 JUMPI PUSH1 0x40 MLOAD PUSH3 0x461BCD PUSH1 0xE5 SHL DUP2 MSTORE PUSH1 0x4 ADD DUP1 DUP1 PUSH1 0x20 ADD DUP3 DUP2 SUB DUP3 MSTORE PUSH1 0x21 DUP2 MSTORE PUSH1 0x20 ADD DUP1 PUSH2 0x2A58 PUSH1 0x21 SWAP2 CODECOPY PUSH1 0x40 ADD SWAP2 POP POP PUSH1 0x40 MLOAD DUP1 SWAP2 SUB SWAP1 REVERT JUMPDEST POP POP POP POP JUMP JUMPDEST PUSH1 0x40 DUP1 MLOAD PUSH4 0x31A9108F PUSH1 0xE1 SHL DUP2 MSTORE PUSH1 0x4 DUP2 ADD DUP4 SWAP1 MSTORE SWAP1 MLOAD DUP4 SWAP2 CALLER SWAP2 PUSH1 0x1 PUSH1 0x1 PUSH1 0xA0 SHL SUB DUP5 AND SWAP2 PUSH4 0x6352211E SWAP2 PUSH1 0x24 DUP1 DUP4 ADD SWAP3 PUSH1 0x20 SWAP3 SWAP2 SWAP1 DUP3 SWAP1 SUB ADD DUP2 DUP7 DUP1 EXTCODESIZE ISZERO DUP1 ISZERO PUSH2 0x1D8A JUMPI PUSH1 0x0 DUP1 REVERT JUMPDEST POP GAS STATICCALL ISZERO DUP1 ISZERO PUSH2 0x1D9E JUMPI RETURNDATASIZE PUSH1 0x0 DUP1 RETURNDATACOPY RETURNDATASIZE PUSH1 0x0 REVERT JUMPDEST POP POP POP POP PUSH1 0x40 MLOAD RETURNDATASIZE PUSH1 0x20 DUP2 LT ISZERO PUSH2 0x1DB4 JUMPI PUSH1 0x0 DUP1 REVERT JUMPDEST POP MLOAD PUSH1 0x1 PUSH1 0x1 PUSH1 0xA0 SHL SUB AND EQ PUSH2 0x9A6 JUMPI PUSH1 0x40 DUP1 MLOAD PUSH3 0x461BCD PUSH1 0xE5 SHL DUP2 MSTORE PUSH1 0x20 PUSH1 0x4 DUP3 ADD MSTORE PUSH1 0x1E PUSH1 0x24 DUP3 ADD MSTORE PUSH32 0x73656E646572206D7573742062652074686520746F6B656E206F776E65720000 PUSH1 0x44 DUP3 ADD MSTORE SWAP1 MLOAD SWAP1 DUP2 SWAP1 SUB PUSH1 0x64 ADD SWAP1 REVERT JUMPDEST PUSH1 0x40 DUP1 MLOAD DUP1 DUP3 ADD DUP3 MSTORE PUSH1 0x0 DUP1 DUP3 MSTORE PUSH1 0x20 DUP1 DUP4 ADD DUP3 DUP2 MSTORE PUSH1 0x1 PUSH1 0x1 PUSH1 0xA0 SHL SUB SWAP7 DUP8 AND DUP4 MSTORE PUSH1 0x5 DUP3 MSTORE DUP5 DUP4 KECCAK256 SWAP6 DUP4 MSTORE SWAP5 SWAP1 MSTORE SWAP2 SWAP1 SWAP2 KECCAK256 SWAP1 MLOAD DUP2 SLOAD PUSH1 0x1 PUSH1 0x1 PUSH1 0xA0 SHL SUB NOT AND SWAP4 AND SWAP3 SWAP1 SWAP3 OR DUP3 SSTORE MLOAD PUSH1 0x1 SWAP1 SWAP2 ADD SSTORE JUMP JUMPDEST PUSH1 0x1 PUSH1 0x1 PUSH1 0xA0 SHL SUB DUP1 DUP4 AND PUSH1 0x0 DUP2 DUP2 MSTORE PUSH1 0x5 PUSH1 0x20 SWAP1 DUP2 MSTORE PUSH1 0x40 DUP1 DUP4 KECCAK256 DUP7 DUP5 MSTORE DUP3 MSTORE DUP1 DUP4 KECCAK256 SLOAD DUP2 MLOAD PUSH4 0x31A9108F PUSH1 0xE1 SHL DUP2 MSTORE PUSH1 0x4 DUP2 ADD DUP9 SWAP1 MSTORE SWAP2 MLOAD SWAP4 SWAP6 DUP9 SWAP6 SWAP2 AND SWAP4 SWAP1 SWAP3 PUSH4 0x6352211E SWAP3 PUSH1 0x24 DUP1 DUP3 ADD SWAP4 SWAP2 DUP3 SWAP1 SUB ADD DUP2 DUP7 DUP1 EXTCODESIZE ISZERO DUP1 ISZERO PUSH2 0x1EC8 JUMPI PUSH1 0x0 DUP1 REVERT JUMPDEST POP GAS STATICCALL ISZERO DUP1 ISZERO PUSH2 0x1EDC JUMPI RETURNDATASIZE PUSH1 0x0 DUP1 RETURNDATACOPY RETURNDATASIZE PUSH1 0x0 REVERT JUMPDEST POP POP POP POP PUSH1 0x40 MLOAD RETURNDATASIZE PUSH1 0x20 DUP2 LT ISZERO PUSH2 0x1EF2 JUMPI PUSH1 0x0 DUP1 REVERT JUMPDEST POP MLOAD PUSH1 0x1 PUSH1 0x1 PUSH1 0xA0 SHL SUB AND EQ SWAP5 SWAP4 POP POP POP POP JUMP JUMPDEST PUSH1 0x0 DUP3 DUP3 ADD DUP4 DUP2 LT ISZERO PUSH2 0x1B76 JUMPI PUSH1 0x40 DUP1 MLOAD PUSH3 0x461BCD PUSH1 0xE5 SHL DUP2 MSTORE PUSH1 0x20 PUSH1 0x4 DUP3 ADD MSTORE PUSH1 0x1B PUSH1 0x24 DUP3 ADD MSTORE PUSH32 0x536166654D6174683A206164646974696F6E206F766572666C6F770000000000 PUSH1 0x44 DUP3 ADD MSTORE SWAP1 MLOAD SWAP1 DUP2 SWAP1 SUB PUSH1 0x64 ADD SWAP1 REVERT JUMPDEST PUSH1 0x1 PUSH1 0x1 PUSH1 0xA0 SHL SUB SWAP2 DUP3 AND PUSH1 0x0 SWAP1 DUP2 MSTORE PUSH1 0x6 PUSH1 0x20 SWAP1 DUP2 MSTORE PUSH1 0x40 DUP1 DUP4 KECCAK256 SWAP4 DUP4 MSTORE SWAP3 SWAP1 MSTORE KECCAK256 SLOAD AND ISZERO ISZERO SWAP1 JUMP JUMPDEST PUSH1 0x40 DUP1 MLOAD PUSH1 0x60 DUP2 ADD DUP3 MSTORE PUSH1 0x0 DUP1 DUP3 MSTORE PUSH1 0x20 DUP1 DUP4 ADD DUP3 DUP2 MSTORE DUP4 DUP6 ADD DUP4 DUP2 MSTORE PUSH1 0x1 PUSH1 0x1 PUSH1 0xA0 SHL SUB SWAP8 DUP9 AND DUP5 MSTORE PUSH1 0x6 DUP4 MSTORE DUP6 DUP5 KECCAK256 SWAP7 DUP5 MSTORE SWAP6 SWAP1 SWAP2 MSTORE SWAP3 SWAP1 KECCAK256 SWAP1 MLOAD DUP2 SLOAD SWAP3 MLOAD PUSH1 0x1 PUSH1 0x1 PUSH1 0xA0 SHL SUB NOT SWAP1 SWAP4 AND SWAP5 AND SWAP4 SWAP1 SWAP4 OR PUSH1 0xFF PUSH1 0xA0 SHL NOT AND PUSH1 0x1 PUSH1 0xA0 SHL PUSH1 0xFF SWAP1 SWAP3 AND SWAP2 SWAP1 SWAP2 MUL OR DUP3 SSTORE MLOAD PUSH1 0x1 SWAP1 SWAP2 ADD SSTORE JUMP JUMPDEST SWAP1 JUMP JUMPDEST PUSH1 0x64 DUP8 PUSH1 0xFF AND GT ISZERO PUSH2 0x2044 JUMPI PUSH1 0x40 MLOAD PUSH3 0x461BCD PUSH1 0xE5 SHL DUP2 MSTORE PUSH1 0x4 ADD DUP1 DUP1 PUSH1 0x20 ADD DUP3 DUP2 SUB DUP3 MSTORE PUSH1 0x32 DUP2 MSTORE PUSH1 0x20 ADD DUP1 PUSH2 0x2998 PUSH1 0x32 SWAP2 CODECOPY PUSH1 0x40 ADD SWAP2 POP POP PUSH1 0x40 MLOAD DUP1 SWAP2 SUB SWAP1 REVERT JUMPDEST PUSH1 0x64 PUSH2 0x2056 PUSH1 0xFF DUP9 DUP2 AND SWAP1 DUP9 AND PUSH2 0x1F06 JUMP JUMPDEST GT ISZERO PUSH2 0x2093 JUMPI PUSH1 0x40 MLOAD PUSH3 0x461BCD PUSH1 0xE5 SHL DUP2 MSTORE PUSH1 0x4 ADD DUP1 DUP1 PUSH1 0x20 ADD DUP3 DUP2 SUB DUP3 MSTORE PUSH1 0x28 DUP2 MSTORE PUSH1 0x20 ADD DUP1 PUSH2 0x29CA PUSH1 0x28 SWAP2 CODECOPY PUSH1 0x40 ADD SWAP2 POP POP PUSH1 0x40 MLOAD DUP1 SWAP2 SUB SWAP1 REVERT JUMPDEST PUSH1 0x1 PUSH1 0x1 PUSH1 0xA0 SHL SUB DUP5 AND ISZERO DUP1 ISZERO SWAP1 PUSH2 0x20B3 JUMPI POP PUSH1 0x1 PUSH1 0x1 PUSH1 0xA0 SHL SUB DUP2 AND ISZERO ISZERO JUMPDEST DUP1 ISZERO PUSH2 0x20C7 JUMPI POP PUSH1 0x1 PUSH1 0x1 PUSH1 0xA0 SHL SUB DUP4 AND ISZERO ISZERO JUMPDEST DUP1 ISZERO PUSH2 0x20DB JUMPI POP PUSH1 0x1 PUSH1 0x1 PUSH1 0xA0 SHL SUB DUP3 AND ISZERO ISZERO JUMPDEST PUSH2 0x2116 JUMPI PUSH1 0x40 MLOAD PUSH3 0x461BCD PUSH1 0xE5 SHL DUP2 MSTORE PUSH1 0x4 ADD DUP1 DUP1 PUSH1 0x20 ADD DUP3 DUP2 SUB DUP3 MSTORE PUSH1 0x29 DUP2 MSTORE PUSH1 0x20 ADD DUP1 PUSH2 0x277B PUSH1 0x29 SWAP2 CODECOPY PUSH1 0x40 ADD SWAP2 POP POP PUSH1 0x40 MLOAD DUP1 SWAP2 SUB SWAP1 REVERT JUMPDEST PUSH2 0x211E PUSH2 0x270F JUMP JUMPDEST PUSH2 0x2128 DUP11 DUP10 PUSH2 0x245E JUMP JUMPDEST DUP2 MSTORE PUSH2 0x2135 DUP10 DUP12 DUP10 PUSH2 0x2472 JUMP JUMPDEST PUSH1 0x20 DUP3 ADD MSTORE PUSH2 0x2145 DUP10 DUP12 DUP9 PUSH2 0x2494 JUMP JUMPDEST PUSH1 0x40 DUP3 ADD DUP2 SWAP1 MSTORE PUSH1 0x20 DUP3 ADD MLOAD PUSH2 0x2167 SWAP2 SWAP1 PUSH2 0x2161 SWAP1 DUP14 SWAP1 PUSH2 0x24B7 JUMP JUMPDEST SWAP1 PUSH2 0x24B7 JUMP JUMPDEST PUSH1 0x60 DUP3 ADD MSTORE DUP1 MLOAD ISZERO PUSH2 0x2185 JUMPI PUSH2 0x2185 DUP5 DUP3 PUSH1 0x0 JUMPDEST PUSH1 0x20 MUL ADD MLOAD PUSH2 0x2514 JUMP JUMPDEST PUSH1 0x20 DUP2 ADD MLOAD ISZERO PUSH2 0x219B JUMPI PUSH2 0x219B DUP4 DUP3 PUSH1 0x1 PUSH2 0x217B JUMP JUMPDEST PUSH1 0x40 DUP2 ADD MLOAD ISZERO PUSH2 0x21B1 JUMPI PUSH2 0x21B1 DUP3 DUP3 PUSH1 0x2 PUSH2 0x217B JUMP JUMPDEST PUSH1 0x60 DUP2 ADD MLOAD ISZERO PUSH2 0x21C7 JUMPI PUSH2 0x21C7 DUP6 DUP3 PUSH1 0x3 PUSH2 0x217B JUMP JUMPDEST POP POP POP POP POP POP POP POP POP POP JUMP JUMPDEST PUSH1 0x0 DUP3 PUSH2 0x21E2 JUMPI POP PUSH1 0x0 PUSH2 0xB29 JUMP JUMPDEST DUP3 DUP3 MUL DUP3 DUP5 DUP3 DUP2 PUSH2 0x21EF JUMPI INVALID JUMPDEST DIV EQ PUSH2 0x1B76 JUMPI PUSH1 0x40 MLOAD PUSH3 0x461BCD PUSH1 0xE5 SHL DUP2 MSTORE PUSH1 0x4 ADD DUP1 DUP1 PUSH1 0x20 ADD DUP3 DUP2 SUB DUP3 MSTORE PUSH1 0x21 DUP2 MSTORE PUSH1 0x20 ADD DUP1 PUSH2 0x2A37 PUSH1 0x21 SWAP2 CODECOPY PUSH1 0x40 ADD SWAP2 POP POP PUSH1 0x40 MLOAD DUP1 SWAP2 SUB SWAP1 REVERT JUMPDEST PUSH1 0x0 DUP1 DUP3 GT PUSH2 0x2282 JUMPI PUSH1 0x40 DUP1 MLOAD PUSH3 0x461BCD PUSH1 0xE5 SHL DUP2 MSTORE PUSH1 0x20 PUSH1 0x4 DUP3 ADD MSTORE PUSH1 0x1A PUSH1 0x24 DUP3 ADD MSTORE PUSH32 0x536166654D6174683A206469766973696F6E206279207A65726F000000000000 PUSH1 0x44 DUP3 ADD MSTORE SWAP1 MLOAD SWAP1 DUP2 SWAP1 SUB PUSH1 0x64 ADD SWAP1 REVERT JUMPDEST DUP2 DUP4 DUP2 PUSH2 0x228B JUMPI INVALID JUMPDEST DIV SWAP4 SWAP3 POP POP POP JUMP JUMPDEST PUSH1 0x1 PUSH1 0x1 PUSH1 0xA0 SHL SUB DUP4 AND PUSH2 0x22EE JUMPI PUSH1 0x40 DUP1 MLOAD PUSH3 0x461BCD PUSH1 0xE5 SHL DUP2 MSTORE PUSH1 0x20 PUSH1 0x4 DUP3 ADD MSTORE PUSH1 0x1B PUSH1 0x24 DUP3 ADD MSTORE PUSH32 0x4269646465722063616E6E6F74206265203020616464726573732E0000000000 PUSH1 0x44 DUP3 ADD MSTORE SWAP1 MLOAD SWAP1 DUP2 SWAP1 SUB PUSH1 0x64 ADD SWAP1 REVERT JUMPDEST PUSH1 0x40 MLOAD DUP1 PUSH1 0x60 ADD PUSH1 0x40 MSTORE DUP1 DUP5 PUSH1 0x1 PUSH1 0x1 PUSH1 0xA0 SHL SUB AND DUP2 MSTORE PUSH1 0x20 ADD PUSH1 0x3 PUSH1 0x0 SWAP1 SLOAD SWAP1 PUSH2 0x100 EXP SWAP1 DIV PUSH1 0x1 PUSH1 0x1 PUSH1 0xA0 SHL SUB AND PUSH1 0x1 PUSH1 0x1 PUSH1 0xA0 SHL SUB AND PUSH4 0x83475921 PUSH1 0x40 MLOAD DUP2 PUSH4 0xFFFFFFFF AND PUSH1 0xE0 SHL DUP2 MSTORE PUSH1 0x4 ADD PUSH1 0x20 PUSH1 0x40 MLOAD DUP1 DUP4 SUB DUP2 DUP7 DUP1 EXTCODESIZE ISZERO DUP1 ISZERO PUSH2 0x2356 JUMPI PUSH1 0x0 DUP1 REVERT JUMPDEST POP GAS STATICCALL ISZERO DUP1 ISZERO PUSH2 0x236A JUMPI RETURNDATASIZE PUSH1 0x0 DUP1 RETURNDATACOPY RETURNDATASIZE PUSH1 0x0 REVERT JUMPDEST POP POP POP POP PUSH1 0x40 MLOAD RETURNDATASIZE PUSH1 0x20 DUP2 LT ISZERO PUSH2 0x2380 JUMPI PUSH1 0x0 DUP1 REVERT JUMPDEST POP MLOAD PUSH1 0xFF SWAP1 DUP2 AND DUP3 MSTORE PUSH1 0x20 SWAP2 DUP3 ADD SWAP7 SWAP1 SWAP7 MSTORE PUSH1 0x1 PUSH1 0x1 PUSH1 0xA0 SHL SUB SWAP4 DUP5 AND PUSH1 0x0 SWAP1 DUP2 MSTORE PUSH1 0x6 DUP3 MSTORE PUSH1 0x40 DUP1 DUP3 KECCAK256 SWAP5 DUP3 MSTORE SWAP4 DUP3 MSTORE DUP4 SWAP1 KECCAK256 DUP3 MLOAD DUP2 SLOAD SWAP3 DUP5 ADD MLOAD PUSH1 0x1 PUSH1 0x1 PUSH1 0xA0 SHL SUB NOT SWAP1 SWAP4 AND SWAP6 AND SWAP5 SWAP1 SWAP5 OR PUSH1 0xFF PUSH1 0xA0 SHL NOT AND PUSH1 0x1 PUSH1 0xA0 SHL SWAP2 SWAP1 SWAP7 AND MUL SWAP5 SWAP1 SWAP5 OR DUP3 SSTORE SWAP3 SWAP1 SWAP3 ADD MLOAD PUSH1 0x1 SWAP1 SWAP3 ADD SWAP2 SWAP1 SWAP2 SSTORE POP JUMP JUMPDEST PUSH1 0x1 PUSH1 0x1 PUSH1 0xA0 SHL SUB DUP3 AND PUSH2 0x243B JUMPI PUSH1 0x40 MLOAD PUSH3 0x461BCD PUSH1 0xE5 SHL DUP2 MSTORE PUSH1 0x4 ADD DUP1 DUP1 PUSH1 0x20 ADD DUP3 DUP2 SUB DUP3 MSTORE PUSH1 0x29 DUP2 MSTORE PUSH1 0x20 ADD DUP1 PUSH2 0x27A4 PUSH1 0x29 SWAP2 CODECOPY PUSH1 0x40 ADD SWAP2 POP POP PUSH1 0x40 MLOAD DUP1 SWAP2 SUB SWAP1 REVERT JUMPDEST DUP1 ISZERO PUSH2 0x9A6 JUMPI PUSH2 0x9A6 DUP3 PUSH2 0x2459 PUSH2 0x2452 DUP5 DUP8 PUSH2 0x245E JUMP JUMPDEST DUP5 SWAP1 PUSH2 0x1F06 JUMP JUMPDEST PUSH2 0x2514 JUMP JUMPDEST PUSH1 0x0 PUSH2 0x1B76 PUSH1 0x64 PUSH2 0x1171 DUP6 PUSH1 0xFF DUP7 AND PUSH2 0x21D3 JUMP JUMPDEST PUSH1 0x0 DUP4 ISZERO PUSH2 0x2482 JUMPI POP PUSH1 0x0 PUSH2 0x1B76 JUMP JUMPDEST PUSH2 0x248C DUP4 DUP4 PUSH2 0x245E JUMP JUMPDEST SWAP5 SWAP4 POP POP POP POP JUMP JUMPDEST PUSH1 0x0 DUP4 ISZERO PUSH2 0x24AD JUMPI PUSH2 0x24A6 DUP4 DUP4 PUSH2 0x245E JUMP JUMPDEST SWAP1 POP PUSH2 0x1B76 JUMP JUMPDEST POP PUSH1 0x0 SWAP4 SWAP3 POP POP POP JUMP JUMPDEST PUSH1 0x0 DUP3 DUP3 GT ISZERO PUSH2 0x250E JUMPI PUSH1 0x40 DUP1 MLOAD PUSH3 0x461BCD PUSH1 0xE5 SHL DUP2 MSTORE PUSH1 0x20 PUSH1 0x4 DUP3 ADD MSTORE PUSH1 0x1E PUSH1 0x24 DUP3 ADD MSTORE PUSH32 0x536166654D6174683A207375627472616374696F6E206F766572666C6F770000 PUSH1 0x44 DUP3 ADD MSTORE SWAP1 MLOAD SWAP1 DUP2 SWAP1 SUB PUSH1 0x64 ADD SWAP1 REVERT JUMPDEST POP SWAP1 SUB SWAP1 JUMP JUMPDEST PUSH1 0x0 PUSH2 0x2520 DUP4 DUP4 PUSH2 0x2575 JUMP JUMPDEST SWAP1 POP DUP1 PUSH2 0x2531 JUMPI PUSH2 0x2531 DUP4 DUP4 PUSH2 0x266A JUMP JUMPDEST PUSH1 0x40 DUP1 MLOAD DUP4 DUP2 MSTORE SWAP1 MLOAD PUSH1 0x1 PUSH1 0x1 PUSH1 0xA0 SHL SUB DUP6 AND SWAP2 PUSH32 0xD88D14434DD4C47D8CD227A931F475DDFAA46A219994F6C5094BD04D940C3C1B SWAP2 SWAP1 DUP2 SWAP1 SUB PUSH1 0x20 ADD SWAP1 LOG2 POP POP POP JUMP JUMPDEST PUSH1 0x1 SLOAD PUSH1 0x40 DUP1 MLOAD PUSH1 0x1 PUSH1 0x1 PUSH1 0xA0 SHL SUB DUP6 DUP2 AND PUSH1 0x24 DUP1 DUP5 ADD SWAP2 SWAP1 SWAP2 MSTORE DUP4 MLOAD DUP1 DUP5 SUB SWAP1 SWAP2 ADD DUP2 MSTORE PUSH1 0x44 SWAP1 SWAP3 ADD DUP4 MSTORE PUSH1 0x20 DUP3 ADD DUP1 MLOAD PUSH1 0x1 PUSH1 0x1 PUSH1 0xE0 SHL SUB AND PUSH4 0xFA50DC9 PUSH1 0xE3 SHL OR DUP2 MSTORE SWAP3 MLOAD DUP3 MLOAD PUSH1 0x0 SWAP6 DUP7 SWAP6 PUSH1 0x60 SWAP6 SWAP5 SWAP1 SWAP2 AND SWAP4 DUP9 SWAP4 SWAP1 SWAP3 SWAP1 SWAP2 DUP3 SWAP2 DUP1 DUP4 DUP4 JUMPDEST PUSH1 0x20 DUP4 LT PUSH2 0x25F7 JUMPI DUP1 MLOAD DUP3 MSTORE PUSH1 0x1F NOT SWAP1 SWAP3 ADD SWAP2 PUSH1 0x20 SWAP2 DUP3 ADD SWAP2 ADD PUSH2 0x25D8 JUMP JUMPDEST PUSH1 0x1 DUP4 PUSH1 0x20 SUB PUSH2 0x100 EXP SUB DUP1 NOT DUP3 MLOAD AND DUP2 DUP5 MLOAD AND DUP1 DUP3 OR DUP6 MSTORE POP POP POP POP POP POP SWAP1 POP ADD SWAP2 POP POP PUSH1 0x0 PUSH1 0x40 MLOAD DUP1 DUP4 SUB DUP2 DUP6 DUP8 GAS CALL SWAP3 POP POP POP RETURNDATASIZE DUP1 PUSH1 0x0 DUP2 EQ PUSH2 0x2659 JUMPI PUSH1 0x40 MLOAD SWAP2 POP PUSH1 0x1F NOT PUSH1 0x3F RETURNDATASIZE ADD AND DUP3 ADD PUSH1 0x40 MSTORE RETURNDATASIZE DUP3 MSTORE RETURNDATASIZE PUSH1 0x0 PUSH1 0x20 DUP5 ADD RETURNDATACOPY PUSH2 0x265E JUMP JUMPDEST PUSH1 0x60 SWAP2 POP JUMPDEST POP SWAP1 SWAP7 SWAP6 POP POP POP POP POP POP JUMP JUMPDEST PUSH1 0x2 SLOAD PUSH1 0x40 DUP1 MLOAD PUSH4 0xF340FA01 PUSH1 0xE0 SHL DUP2 MSTORE PUSH1 0x1 PUSH1 0x1 PUSH1 0xA0 SHL SUB DUP6 DUP2 AND PUSH1 0x4 DUP4 ADD MSTORE SWAP2 MLOAD SWAP2 SWAP1 SWAP3 AND SWAP2 PUSH4 0xF340FA01 SWAP2 DUP5 SWAP2 PUSH1 0x24 DUP1 DUP3 ADD SWAP3 PUSH1 0x0 SWAP3 SWAP1 SWAP2 SWAP1 DUP3 SWAP1 SUB ADD DUP2 DUP6 DUP9 DUP1 EXTCODESIZE ISZERO DUP1 ISZERO PUSH2 0x26BB JUMPI PUSH1 0x0 DUP1 REVERT JUMPDEST POP GAS CALL ISZERO DUP1 ISZERO PUSH2 0x26CF JUMPI RETURNDATASIZE PUSH1 0x0 DUP1 RETURNDATACOPY RETURNDATASIZE PUSH1 0x0 REVERT JUMPDEST POP POP POP POP POP POP POP JUMP JUMPDEST PUSH1 0x40 DUP1 MLOAD PUSH1 0x60 DUP2 ADD DUP3 MSTORE PUSH1 0x0 DUP1 DUP3 MSTORE PUSH1 0x20 DUP3 ADD DUP2 SWAP1 MSTORE SWAP2 DUP2 ADD SWAP2 SWAP1 SWAP2 MSTORE SWAP1 JUMP JUMPDEST PUSH1 0x40 DUP1 MLOAD DUP1 DUP3 ADD SWAP1 SWAP2 MSTORE PUSH1 0x0 DUP1 DUP3 MSTORE PUSH1 0x20 DUP3 ADD MSTORE SWAP1 JUMP JUMPDEST PUSH1 0x40 MLOAD DUP1 PUSH1 0x80 ADD PUSH1 0x40 MSTORE DUP1 PUSH1 0x4 SWAP1 PUSH1 0x20 DUP3 MUL DUP1 CALLDATASIZE DUP4 CALLDATACOPY POP SWAP2 SWAP3 SWAP2 POP POP JUMP INVALID PUSH20 0x65744945524337323143726561746F72526F7961 PUSH13 0x74793A3A43616E6E6F74206861 PUSH23 0x65206E756C6C206164647265737320666F72205F694552 NUMBER CALLDATACOPY ORIGIN BALANCE NUMBER PUSH19 0x6561746F72526F79616C74797061796F75743A GASPRICE PUSH15 0x6F207061796565732063616E206265 KECCAK256 PUSH21 0x6865207A65726F2061646472657373726566756E64 GASPRICE GASPRICE PUSH15 0x6F207061796565732063616E206265 KECCAK256 PUSH21 0x6865207A65726F2061646472657373736166654275 PUSH26 0x3A3A507572636861736520616D6F756E74206D75737420657175 PUSH2 0x6C20 PUSH6 0x787065637465 PUSH5 0x20616D6F75 PUSH15 0x744F776E61626C653A206E6577206F PUSH24 0x6E657220697320746865207A65726F206164647265737362 PUSH22 0x793A3A4D757374207075726368617365207468652074 PUSH16 0x6B656E20666F722074686520636F7272 PUSH6 0x637420707269 PUSH4 0x65627579 GASPRICE GASPRICE SLOAD PUSH16 0x6B656E73207072696365642061742030 KECCAK256 PUSH2 0x7265 KECCAK256 PUSH15 0x6F7420666F722073616C652E626964 GASPRICE GASPRICE 0x4D PUSH22 0x73742070757263686173652074686520746F6B656E20 PUSH7 0x6F722074686520 PUSH4 0x6F727265 PUSH4 0x74207072 PUSH10 0x63652E6275793A3A4375 PUSH19 0x72656E7420746F6B656E206F776E6572206D75 PUSH20 0x742062652074686520706572736F6E20746F2068 PUSH2 0x7665 KECCAK256 PUSH21 0x6865206C61746573742070726963652E7361666541 PUSH4 0x63657074 TIMESTAMP PUSH10 0x643A3A42696420616D6F PUSH22 0x6E74206D75737420657175616C206578706563746564 KECCAK256 PUSH2 0x6D6F PUSH22 0x6E746163636570744269643A3A43616E6E6F74206163 PUSH4 0x65707420 PUSH2 0x2062 PUSH10 0x64207768656E20746865 PUSH19 0x65206973206E6F6E652E63616E63656C426964 GASPRICE GASPRICE NUMBER PUSH2 0x6E6E PUSH16 0x742063616E63656C2061206269642069 PUSH7 0x2073656E646572 KECCAK256 PUSH9 0x61736E2774206D6164 PUSH6 0x206F6E652E70 PUSH2 0x796F PUSH22 0x743A3A6D61726B6574706C6163652070657263656E74 PUSH2 0x6765 KECCAK256 PUSH4 0x616E6E6F PUSH21 0x2062652061626F7665203130307061796F75743A3A PUSH17 0x657263656E74616765732063616E6E6F74 KECCAK256 PUSH8 0x6F206265796F6E64 KECCAK256 BALANCE ADDRESS ADDRESS PUSH20 0x65744D61726B6574706C61636553657474696E67 PUSH20 0x3A3A43616E6E6F742068617665206E756C6C2061 PUSH5 0x6472657373 KECCAK256 PUSH7 0x6F72205F694D61 PUSH19 0x6B657453657474696E6773536166654D617468 GASPRICE KECCAK256 PUSH14 0x756C7469706C69636174696F6E20 PUSH16 0x766572666C6F776F776E6572206D7573 PUSH21 0x206861766520617070726F76656420636F6E747261 PUSH4 0x744F776E PUSH2 0x626C PUSH6 0x3A2063616C6C PUSH6 0x72206973206E PUSH16 0x7420746865206F776E65726269643A3A 0x4D PUSH22 0x737420706C6163652068696768657220626964207468 PUSH2 0x6E20 PUSH6 0x78697374696E PUSH8 0x20626964202B206D PUSH10 0x6E696D756D2070657263 PUSH6 0x6E746167652E LOG2 PUSH5 0x6970667358 0x22 SLT KECCAK256 0x4D LOG4 CHAINID 0xBC 0xA5 GAS PUSH11 0x3DF3873952C1D33433F664 BYTE 0xBD 0xAF SGT 0xCA BYTE 0x2F COINBASE DUP10 SWAP8 SLOAD PUSH14 0xC7564736F6C634300060C003360 DUP1 PUSH1 0x40 MSTORE CALLVALUE DUP1 ISZERO PUSH2 0x10 JUMPI PUSH1 0x0 DUP1 REVERT JUMPDEST POP PUSH1 0xB4 DUP1 PUSH2 0x1F PUSH1 0x0 CODECOPY PUSH1 0x0 RETURN INVALID PUSH1 0x80 PUSH1 0x40 MSTORE PUSH1 0x4 CALLDATASIZE LT PUSH1 0x1C JUMPI PUSH1 0x0 CALLDATALOAD PUSH1 0xE0 SHR DUP1 PUSH4 0x7D286E48 EQ PUSH1 0x21 JUMPI JUMPDEST PUSH1 0x0 DUP1 REVERT JUMPDEST PUSH1 0x44 PUSH1 0x4 DUP1 CALLDATASIZE SUB PUSH1 0x20 DUP2 LT ISZERO PUSH1 0x35 JUMPI PUSH1 0x0 DUP1 REVERT JUMPDEST POP CALLDATALOAD PUSH1 0x1 PUSH1 0x1 PUSH1 0xA0 SHL SUB AND PUSH1 0x46 JUMP JUMPDEST STOP JUMPDEST PUSH1 0x40 MLOAD PUSH1 0x1 PUSH1 0x1 PUSH1 0xA0 SHL SUB DUP3 AND SWAP1 CALLVALUE DUP1 ISZERO PUSH2 0x8FC MUL SWAP2 PUSH1 0x0 DUP2 DUP2 DUP2 DUP6 DUP9 DUP9 CALL SWAP4 POP POP POP POP ISZERO DUP1 ISZERO PUSH1 0x7A JUMPI RETURNDATASIZE PUSH1 0x0 DUP1 RETURNDATACOPY RETURNDATASIZE PUSH1 0x0 REVERT JUMPDEST POP POP JUMP INVALID LOG2 PUSH5 0x6970667358 0x22 SLT KECCAK256 PUSH18 0x9E250A6BC41315AAAB320B499BE8EA2DE1AB JUMPDEST DUP11 CALLVALUE DUP2 0xD6 0xB4 0xB9 STOP PUSH1 0xFD DUP3 0xEF PUSH15 0x64736F6C634300060C003360806040 MSTORE CALLVALUE DUP1 ISZERO PUSH2 0x10 JUMPI PUSH1 0x0 DUP1 REVERT JUMPDEST POP PUSH1 0x0 PUSH2 0x1B PUSH2 0x6A JUMP JUMPDEST PUSH1 0x0 DUP1 SLOAD PUSH1 0x1 PUSH1 0x1 PUSH1 0xA0 SHL SUB NOT AND PUSH1 0x1 PUSH1 0x1 PUSH1 0xA0 SHL SUB DUP4 AND SWAP1 DUP2 OR DUP3 SSTORE PUSH1 0x40 MLOAD SWAP3 SWAP4 POP SWAP2 PUSH32 0x8BE0079C531659141344CD1FD0A4F28419497F9722A3DAAFE3B4186F6B6457E0 SWAP1 DUP3 SWAP1 LOG3 POP PUSH2 0x6E JUMP JUMPDEST CALLER SWAP1 JUMP JUMPDEST PUSH2 0x6FA DUP1 PUSH2 0x7D PUSH1 0x0 CODECOPY PUSH1 0x0 RETURN INVALID PUSH1 0x80 PUSH1 0x40 MSTORE PUSH1 0x4 CALLDATASIZE LT PUSH2 0x55 JUMPI PUSH1 0x0 CALLDATALOAD PUSH1 0xE0 SHR DUP1 PUSH4 0x51CFF8D9 EQ PUSH2 0x5A JUMPI DUP1 PUSH4 0x715018A6 EQ PUSH2 0x8F JUMPI DUP1 PUSH4 0x8DA5CB5B EQ PUSH2 0xA4 JUMPI DUP1 PUSH4 0xE3A9DB1A EQ PUSH2 0xD5 JUMPI DUP1 PUSH4 0xF2FDE38B EQ PUSH2 0x11A JUMPI DUP1 PUSH4 0xF340FA01 EQ PUSH2 0x14D JUMPI JUMPDEST PUSH1 0x0 DUP1 REVERT JUMPDEST CALLVALUE DUP1 ISZERO PUSH2 0x66 JUMPI PUSH1 0x0 DUP1 REVERT JUMPDEST POP PUSH2 0x8D PUSH1 0x4 DUP1 CALLDATASIZE SUB PUSH1 0x20 DUP2 LT ISZERO PUSH2 0x7D JUMPI PUSH1 0x0 DUP1 REVERT JUMPDEST POP CALLDATALOAD PUSH1 0x1 PUSH1 0x1 PUSH1 0xA0 SHL SUB AND PUSH2 0x173 JUMP JUMPDEST STOP JUMPDEST CALLVALUE DUP1 ISZERO PUSH2 0x9B JUMPI PUSH1 0x0 DUP1 REVERT JUMPDEST POP PUSH2 0x8D PUSH2 0x240 JUMP JUMPDEST CALLVALUE DUP1 ISZERO PUSH2 0xB0 JUMPI PUSH1 0x0 DUP1 REVERT JUMPDEST POP PUSH2 0xB9 PUSH2 0x2EC JUMP JUMPDEST PUSH1 0x40 DUP1 MLOAD PUSH1 0x1 PUSH1 0x1 PUSH1 0xA0 SHL SUB SWAP1 SWAP3 AND DUP3 MSTORE MLOAD SWAP1 DUP2 SWAP1 SUB PUSH1 0x20 ADD SWAP1 RETURN JUMPDEST CALLVALUE DUP1 ISZERO PUSH2 0xE1 JUMPI PUSH1 0x0 DUP1 REVERT JUMPDEST POP PUSH2 0x108 PUSH1 0x4 DUP1 CALLDATASIZE SUB PUSH1 0x20 DUP2 LT ISZERO PUSH2 0xF8 JUMPI PUSH1 0x0 DUP1 REVERT JUMPDEST POP CALLDATALOAD PUSH1 0x1 PUSH1 0x1 PUSH1 0xA0 SHL SUB AND PUSH2 0x2FB JUMP JUMPDEST PUSH1 0x40 DUP1 MLOAD SWAP2 DUP3 MSTORE MLOAD SWAP1 DUP2 SWAP1 SUB PUSH1 0x20 ADD SWAP1 RETURN JUMPDEST CALLVALUE DUP1 ISZERO PUSH2 0x126 JUMPI PUSH1 0x0 DUP1 REVERT JUMPDEST POP PUSH2 0x8D PUSH1 0x4 DUP1 CALLDATASIZE SUB PUSH1 0x20 DUP2 LT ISZERO PUSH2 0x13D JUMPI PUSH1 0x0 DUP1 REVERT JUMPDEST POP CALLDATALOAD PUSH1 0x1 PUSH1 0x1 PUSH1 0xA0 SHL SUB AND PUSH2 0x316 JUMP JUMPDEST PUSH2 0x8D PUSH1 0x4 DUP1 CALLDATASIZE SUB PUSH1 0x20 DUP2 LT ISZERO PUSH2 0x163 JUMPI PUSH1 0x0 DUP1 REVERT JUMPDEST POP CALLDATALOAD PUSH1 0x1 PUSH1 0x1 PUSH1 0xA0 SHL SUB AND PUSH2 0x418 JUMP JUMPDEST PUSH2 0x17B PUSH2 0x4F5 JUMP JUMPDEST PUSH1 0x1 PUSH1 0x1 PUSH1 0xA0 SHL SUB AND PUSH2 0x18C PUSH2 0x2EC JUMP JUMPDEST PUSH1 0x1 PUSH1 0x1 PUSH1 0xA0 SHL SUB AND EQ PUSH2 0x1D5 JUMPI PUSH1 0x40 DUP1 MLOAD PUSH3 0x461BCD PUSH1 0xE5 SHL DUP2 MSTORE PUSH1 0x20 PUSH1 0x4 DUP3 ADD DUP2 SWAP1 MSTORE PUSH1 0x24 DUP3 ADD MSTORE PUSH1 0x0 DUP1 MLOAD PUSH1 0x20 PUSH2 0x6A5 DUP4 CODECOPY DUP2 MLOAD SWAP2 MSTORE PUSH1 0x44 DUP3 ADD MSTORE SWAP1 MLOAD SWAP1 DUP2 SWAP1 SUB PUSH1 0x64 ADD SWAP1 REVERT JUMPDEST PUSH1 0x1 PUSH1 0x1 PUSH1 0xA0 SHL SUB DUP2 AND PUSH1 0x0 DUP2 DUP2 MSTORE PUSH1 0x1 PUSH1 0x20 MSTORE PUSH1 0x40 DUP2 KECCAK256 DUP1 SLOAD SWAP2 SWAP1 SSTORE SWAP1 PUSH2 0x1FD SWAP1 DUP3 PUSH2 0x4F9 JUMP JUMPDEST PUSH1 0x40 DUP1 MLOAD DUP3 DUP2 MSTORE SWAP1 MLOAD PUSH1 0x1 PUSH1 0x1 PUSH1 0xA0 SHL SUB DUP5 AND SWAP2 PUSH32 0x7084F5476618D8E60B11EF0D7D3F06914655ADB8793E28FF7F018D4C76D505D5 SWAP2 SWAP1 DUP2 SWAP1 SUB PUSH1 0x20 ADD SWAP1 LOG2 POP POP JUMP JUMPDEST PUSH2 0x248 PUSH2 0x4F5 JUMP JUMPDEST PUSH1 0x1 PUSH1 0x1 PUSH1 0xA0 SHL SUB AND PUSH2 0x259 PUSH2 0x2EC JUMP JUMPDEST PUSH1 0x1 PUSH1 0x1 PUSH1 0xA0 SHL SUB AND EQ PUSH2 0x2A2 JUMPI PUSH1 0x40 DUP1 MLOAD PUSH3 0x461BCD PUSH1 0xE5 SHL DUP2 MSTORE PUSH1 0x20 PUSH1 0x4 DUP3 ADD DUP2 SWAP1 MSTORE PUSH1 0x24 DUP3 ADD MSTORE PUSH1 0x0 DUP1 MLOAD PUSH1 0x20 PUSH2 0x6A5 DUP4 CODECOPY DUP2 MLOAD SWAP2 MSTORE PUSH1 0x44 DUP3 ADD MSTORE SWAP1 MLOAD SWAP1 DUP2 SWAP1 SUB PUSH1 0x64 ADD SWAP1 REVERT JUMPDEST PUSH1 0x0 DUP1 SLOAD PUSH1 0x40 MLOAD PUSH1 0x1 PUSH1 0x1 PUSH1 0xA0 SHL SUB SWAP1 SWAP2 AND SWAP1 PUSH32 0x8BE0079C531659141344CD1FD0A4F28419497F9722A3DAAFE3B4186F6B6457E0 SWAP1 DUP4 SWAP1 LOG3 PUSH1 0x0 DUP1 SLOAD PUSH1 0x1 PUSH1 0x1 PUSH1 0xA0 SHL SUB NOT AND SWAP1 SSTORE JUMP JUMPDEST PUSH1 0x0 SLOAD PUSH1 0x1 PUSH1 0x1 PUSH1 0xA0 SHL SUB AND SWAP1 JUMP JUMPDEST PUSH1 0x1 PUSH1 0x1 PUSH1 0xA0 SHL SUB AND PUSH1 0x0 SWAP1 DUP2 MSTORE PUSH1 0x1 PUSH1 0x20 MSTORE PUSH1 0x40 SWAP1 KECCAK256 SLOAD SWAP1 JUMP JUMPDEST PUSH2 0x31E PUSH2 0x4F5 JUMP JUMPDEST PUSH1 0x1 PUSH1 0x1 PUSH1 0xA0 SHL SUB AND PUSH2 0x32F PUSH2 0x2EC JUMP JUMPDEST PUSH1 0x1 PUSH1 0x1 PUSH1 0xA0 SHL SUB AND EQ PUSH2 0x378 JUMPI PUSH1 0x40 DUP1 MLOAD PUSH3 0x461BCD PUSH1 0xE5 SHL DUP2 MSTORE PUSH1 0x20 PUSH1 0x4 DUP3 ADD DUP2 SWAP1 MSTORE PUSH1 0x24 DUP3 ADD MSTORE PUSH1 0x0 DUP1 MLOAD PUSH1 0x20 PUSH2 0x6A5 DUP4 CODECOPY DUP2 MLOAD SWAP2 MSTORE PUSH1 0x44 DUP3 ADD MSTORE SWAP1 MLOAD SWAP1 DUP2 SWAP1 SUB PUSH1 0x64 ADD SWAP1 REVERT JUMPDEST PUSH1 0x1 PUSH1 0x1 PUSH1 0xA0 SHL SUB DUP2 AND PUSH2 0x3BD JUMPI PUSH1 0x40 MLOAD PUSH3 0x461BCD PUSH1 0xE5 SHL DUP2 MSTORE PUSH1 0x4 ADD DUP1 DUP1 PUSH1 0x20 ADD DUP3 DUP2 SUB DUP3 MSTORE PUSH1 0x26 DUP2 MSTORE PUSH1 0x20 ADD DUP1 PUSH2 0x645 PUSH1 0x26 SWAP2 CODECOPY PUSH1 0x40 ADD SWAP2 POP POP PUSH1 0x40 MLOAD DUP1 SWAP2 SUB SWAP1 REVERT JUMPDEST PUSH1 0x0 DUP1 SLOAD PUSH1 0x40 MLOAD PUSH1 0x1 PUSH1 0x1 PUSH1 0xA0 SHL SUB DUP1 DUP6 AND SWAP4 SWAP3 AND SWAP2 PUSH32 0x8BE0079C531659141344CD1FD0A4F28419497F9722A3DAAFE3B4186F6B6457E0 SWAP2 LOG3 PUSH1 0x0 DUP1 SLOAD PUSH1 0x1 PUSH1 0x1 PUSH1 0xA0 SHL SUB NOT AND PUSH1 0x1 PUSH1 0x1 PUSH1 0xA0 SHL SUB SWAP3 SWAP1 SWAP3 AND SWAP2 SWAP1 SWAP2 OR SWAP1 SSTORE JUMP JUMPDEST PUSH2 0x420 PUSH2 0x4F5 JUMP JUMPDEST PUSH1 0x1 PUSH1 0x1 PUSH1 0xA0 SHL SUB AND PUSH2 0x431 PUSH2 0x2EC JUMP JUMPDEST PUSH1 0x1 PUSH1 0x1 PUSH1 0xA0 SHL SUB AND EQ PUSH2 0x47A JUMPI PUSH1 0x40 DUP1 MLOAD PUSH3 0x461BCD PUSH1 0xE5 SHL DUP2 MSTORE PUSH1 0x20 PUSH1 0x4 DUP3 ADD DUP2 SWAP1 MSTORE PUSH1 0x24 DUP3 ADD MSTORE PUSH1 0x0 DUP1 MLOAD PUSH1 0x20 PUSH2 0x6A5 DUP4 CODECOPY DUP2 MLOAD SWAP2 MSTORE PUSH1 0x44 DUP3 ADD MSTORE SWAP1 MLOAD SWAP1 DUP2 SWAP1 SUB PUSH1 0x64 ADD SWAP1 REVERT JUMPDEST PUSH1 0x1 PUSH1 0x1 PUSH1 0xA0 SHL SUB DUP2 AND PUSH1 0x0 SWAP1 DUP2 MSTORE PUSH1 0x1 PUSH1 0x20 MSTORE PUSH1 0x40 SWAP1 KECCAK256 SLOAD CALLVALUE SWAP1 PUSH2 0x49F SWAP1 DUP3 PUSH2 0x5E3 JUMP JUMPDEST PUSH1 0x1 PUSH1 0x1 PUSH1 0xA0 SHL SUB DUP4 AND PUSH1 0x0 DUP2 DUP2 MSTORE PUSH1 0x1 PUSH1 0x20 SWAP1 DUP2 MSTORE PUSH1 0x40 SWAP2 DUP3 SWAP1 KECCAK256 SWAP4 SWAP1 SWAP4 SSTORE DUP1 MLOAD DUP5 DUP2 MSTORE SWAP1 MLOAD SWAP2 SWAP3 PUSH32 0x2DA466A7B24304F47E87FA2E1E5A81B9831CE54FEC19055CE277CA2F39BA42C4 SWAP3 SWAP2 DUP3 SWAP1 SUB ADD SWAP1 LOG2 POP POP JUMP JUMPDEST CALLER SWAP1 JUMP JUMPDEST DUP1 SELFBALANCE LT ISZERO PUSH2 0x54E JUMPI PUSH1 0x40 DUP1 MLOAD PUSH3 0x461BCD PUSH1 0xE5 SHL DUP2 MSTORE PUSH1 0x20 PUSH1 0x4 DUP3 ADD MSTORE PUSH1 0x1D PUSH1 0x24 DUP3 ADD MSTORE PUSH32 0x416464726573733A20696E73756666696369656E742062616C616E6365000000 PUSH1 0x44 DUP3 ADD MSTORE SWAP1 MLOAD SWAP1 DUP2 SWAP1 SUB PUSH1 0x64 ADD SWAP1 REVERT JUMPDEST PUSH1 0x40 MLOAD PUSH1 0x0 SWAP1 PUSH1 0x1 PUSH1 0x1 PUSH1 0xA0 SHL SUB DUP5 AND SWAP1 DUP4 SWAP1 DUP4 DUP2 DUP2 DUP2 DUP6 DUP8 GAS CALL SWAP3 POP POP POP RETURNDATASIZE DUP1 PUSH1 0x0 DUP2 EQ PUSH2 0x599 JUMPI PUSH1 0x40 MLOAD SWAP2 POP PUSH1 0x1F NOT PUSH1 0x3F RETURNDATASIZE ADD AND DUP3 ADD PUSH1 0x40 MSTORE RETURNDATASIZE DUP3 MSTORE RETURNDATASIZE PUSH1 0x0 PUSH1 0x20 DUP5 ADD RETURNDATACOPY PUSH2 0x59E JUMP JUMPDEST PUSH1 0x60 SWAP2 POP JUMPDEST POP POP SWAP1 POP DUP1 PUSH2 0x5DE JUMPI PUSH1 0x40 MLOAD PUSH3 0x461BCD PUSH1 0xE5 SHL DUP2 MSTORE PUSH1 0x4 ADD DUP1 DUP1 PUSH1 0x20 ADD DUP3 DUP2 SUB DUP3 MSTORE PUSH1 0x3A DUP2 MSTORE PUSH1 0x20 ADD DUP1 PUSH2 0x66B PUSH1 0x3A SWAP2 CODECOPY PUSH1 0x40 ADD SWAP2 POP POP PUSH1 0x40 MLOAD DUP1 SWAP2 SUB SWAP1 REVERT JUMPDEST POP POP POP JUMP JUMPDEST PUSH1 0x0 DUP3 DUP3 ADD DUP4 DUP2 LT ISZERO PUSH2 0x63D JUMPI PUSH1 0x40 DUP1 MLOAD PUSH3 0x461BCD PUSH1 0xE5 SHL DUP2 MSTORE PUSH1 0x20 PUSH1 0x4 DUP3 ADD MSTORE PUSH1 0x1B PUSH1 0x24 DUP3 ADD MSTORE PUSH32 0x536166654D6174683A206164646974696F6E206F766572666C6F770000000000 PUSH1 0x44 DUP3 ADD MSTORE SWAP1 MLOAD SWAP1 DUP2 SWAP1 SUB PUSH1 0x64 ADD SWAP1 REVERT JUMPDEST SWAP4 SWAP3 POP POP POP JUMP INVALID 0x4F PUSH24 0x6E61626C653A206E6577206F776E65722069732074686520 PUSH27 0x65726F2061646472657373416464726573733A20756E61626C6520 PUSH21 0x6F2073656E642076616C75652C2072656369706965 PUSH15 0x74206D617920686176652072657665 PUSH19 0x7465644F776E61626C653A2063616C6C657220 PUSH10 0x73206E6F742074686520 PUSH16 0x776E6572A26469706673582212209BB3 0xDC PUSH12 0x7A5AF4009314FEE85389F236 MLOAD RETURN GASPRICE 0xC5 0xCB SMOD GASLIMIT DELEGATECALL PUSH23 0x82F044EE713CD164736F6C634300060C0033636F6E7374 PUSH19 0x7563746F723A3A43616E6E6F74206861766520 PUSH15 0x756C6C206164647265737320666F72 KECCAK256 0x5F PUSH10 0x45524337323143726561 PUSH21 0x6F72526F79616C7479636F6E7374727563746F723A GASPRICE NUMBER PUSH2 0x6E6E PUSH16 0x742068617665206E756C6C2061646472 PUSH6 0x737320666F72 KECCAK256 0x5F PUSH10 0x4D61726B657453657474 PUSH10 0x6E677300000000000000 "
		},
		"gasEstimates": {
			"creation": {
				"codeDepositCost": "2204800",
				"executionCost": "infinite",
				"totalCost": "infinite"
			},
			"external": {
				"acceptBid(address,uint256)": "infinite",
				"bid(uint256,address,uint256)": "infinite",
				"buy(address,uint256)": "infinite",
				"cancelBid(address,uint256)": "infinite",
				"currentBidDetailsOfToken(address,uint256)": "2141",
				"iERC721CreatorRoyalty()": "1103",
				"iMarketplaceSettings()": "1148",
				"minimumBidIncreasePercentage()": "1080",
				"owner()": "1060",
				"payments(address)": "infinite",
				"renounceOwnership()": "infinite",
				"safeAcceptBid(address,uint256,uint256)": "infinite",
				"safeBuy(address,uint256,uint256)": "infinite",
				"setIERC721CreatorRoyalty(address)": "infinite",
				"setMarketplaceSettings(address)": "infinite",
				"setMinimumBidIncreasePercentage(uint8)": "infinite",
				"setSalePrice(address,uint256,uint256)": "infinite",
				"tokenPrice(address,uint256)": "infinite",
				"tokenPriceFeeIncluded(address,uint256)": "infinite",
				"transferOwnership(address)": "infinite",
				"withdrawPayments(address)": "infinite"
			},
			"internal": {
				"_addressHasBidOnToken(address,address,uint256)": "1011",
				"_makePayable(address)": "12",
				"_priceSetterStillOwnsTheToken(address,uint256)": "infinite",
				"_refundBid(address,uint256)": "infinite",
				"_resetBid(address,uint256)": "infinite",
				"_resetTokenPrice(address,uint256)": "infinite",
				"_setBid(uint256,address payable,address,uint256)": "infinite",
				"_tokenHasBid(address,uint256)": "989",
				"ownerMustHaveMarketplaceApproved(address,uint256)": "infinite",
				"senderMustBeTokenOwner(address,uint256)": "infinite"
			}
		},
		"methodIdentifiers": {
			"acceptBid(address,uint256)": "955a5a76",
			"bid(uint256,address,uint256)": "c0f4ed31",
			"buy(address,uint256)": "cce7ec13",
			"cancelBid(address,uint256)": "39b6b1e5",
			"currentBidDetailsOfToken(address,uint256)": "14df85e9",
			"iERC721CreatorRoyalty()": "cafdcad0",
			"iMarketplaceSettings()": "a334c844",
			"minimumBidIncreasePercentage()": "6fe9f44c",
			"owner()": "8da5cb5b",
			"payments(address)": "e2982c21",
			"renounceOwnership()": "715018a6",
			"safeAcceptBid(address,uint256,uint256)": "7598fdb3",
			"safeBuy(address,uint256,uint256)": "c8db6962",
			"setIERC721CreatorRoyalty(address)": "0d7d703f",
			"setMarketplaceSettings(address)": "176ab440",
			"setMinimumBidIncreasePercentage(uint8)": "48626b90",
			"setSalePrice(address,uint256,uint256)": "508c1dbd",
			"tokenPrice(address,uint256)": "916c03ba",
			"tokenPriceFeeIncluded(address,uint256)": "93d10cea",
			"transferOwnership(address)": "f2fde38b",
			"withdrawPayments(address)": "31b3eb94"
		}
	},
	"abi": [
		{
			"inputs": [
				{
					"internalType": "address",
					"name": "_iMarketSettings",
					"type": "address"
				},
				{
					"internalType": "address",
					"name": "_iERC721CreatorRoyalty",
					"type": "address"
				}
			],
			"stateMutability": "nonpayable",
			"type": "constructor"
		},
		{
			"anonymous": false,
			"inputs": [
				{
					"indexed": true,
					"internalType": "address",
					"name": "_originContract",
					"type": "address"
				},
				{
					"indexed": true,
					"internalType": "address",
					"name": "_bidder",
					"type": "address"
				},
				{
					"indexed": true,
					"internalType": "address",
					"name": "_seller",
					"type": "address"
				},
				{
					"indexed": false,
					"internalType": "uint256",
					"name": "_amount",
					"type": "uint256"
				},
				{
					"indexed": false,
					"internalType": "uint256",
					"name": "_tokenId",
					"type": "uint256"
				}
			],
			"name": "AcceptBid",
			"type": "event"
		},
		{
			"anonymous": false,
			"inputs": [
				{
					"indexed": true,
					"internalType": "address",
					"name": "_originContract",
					"type": "address"
				},
				{
					"indexed": true,
					"internalType": "address",
					"name": "_bidder",
					"type": "address"
				},
				{
					"indexed": false,
					"internalType": "uint256",
					"name": "_amount",
					"type": "uint256"
				},
				{
					"indexed": false,
					"internalType": "uint256",
					"name": "_tokenId",
					"type": "uint256"
				}
			],
			"name": "Bid",
			"type": "event"
		},
		{
			"anonymous": false,
			"inputs": [
				{
					"indexed": true,
					"internalType": "address",
					"name": "_originContract",
					"type": "address"
				},
				{
					"indexed": true,
					"internalType": "address",
					"name": "_bidder",
					"type": "address"
				},
				{
					"indexed": false,
					"internalType": "uint256",
					"name": "_amount",
					"type": "uint256"
				},
				{
					"indexed": false,
					"internalType": "uint256",
					"name": "_tokenId",
					"type": "uint256"
				}
			],
			"name": "CancelBid",
			"type": "event"
		},
		{
			"anonymous": false,
			"inputs": [
				{
					"indexed": true,
					"internalType": "address",
					"name": "previousOwner",
					"type": "address"
				},
				{
					"indexed": true,
					"internalType": "address",
					"name": "newOwner",
					"type": "address"
				}
			],
			"name": "OwnershipTransferred",
			"type": "event"
		},
		{
			"anonymous": false,
			"inputs": [
				{
					"indexed": true,
					"internalType": "address",
					"name": "_payee",
					"type": "address"
				},
				{
					"indexed": false,
					"internalType": "uint256",
					"name": "amount",
					"type": "uint256"
				}
			],
			"name": "SendValue",
			"type": "event"
		},
		{
			"anonymous": false,
			"inputs": [
				{
					"indexed": true,
					"internalType": "address",
					"name": "_originContract",
					"type": "address"
				},
				{
					"indexed": false,
					"internalType": "uint256",
					"name": "_amount",
					"type": "uint256"
				},
				{
					"indexed": false,
					"internalType": "uint256",
					"name": "_tokenId",
					"type": "uint256"
				}
			],
			"name": "SetSalePrice",
			"type": "event"
		},
		{
			"anonymous": false,
			"inputs": [
				{
					"indexed": true,
					"internalType": "address",
					"name": "_originContract",
					"type": "address"
				},
				{
					"indexed": true,
					"internalType": "address",
					"name": "_buyer",
					"type": "address"
				},
				{
					"indexed": true,
					"internalType": "address",
					"name": "_seller",
					"type": "address"
				},
				{
					"indexed": false,
					"internalType": "uint256",
					"name": "_amount",
					"type": "uint256"
				},
				{
					"indexed": false,
					"internalType": "uint256",
					"name": "_tokenId",
					"type": "uint256"
				}
			],
			"name": "Sold",
			"type": "event"
		},
		{
			"inputs": [
				{
					"internalType": "address",
					"name": "_originContract",
					"type": "address"
				},
				{
					"internalType": "uint256",
					"name": "_tokenId",
					"type": "uint256"
				}
			],
			"name": "acceptBid",
			"outputs": [],
			"stateMutability": "nonpayable",
			"type": "function"
		},
		{
			"inputs": [
				{
					"internalType": "uint256",
					"name": "_newBidAmount",
					"type": "uint256"
				},
				{
					"internalType": "address",
					"name": "_originContract",
					"type": "address"
				},
				{
					"internalType": "uint256",
					"name": "_tokenId",
					"type": "uint256"
				}
			],
			"name": "bid",
			"outputs": [],
			"stateMutability": "payable",
			"type": "function"
		},
		{
			"inputs": [
				{
					"internalType": "address",
					"name": "_originContract",
					"type": "address"
				},
				{
					"internalType": "uint256",
					"name": "_tokenId",
					"type": "uint256"
				}
			],
			"name": "buy",
			"outputs": [],
			"stateMutability": "payable",
			"type": "function"
		},
		{
			"inputs": [
				{
					"internalType": "address",
					"name": "_originContract",
					"type": "address"
				},
				{
					"internalType": "uint256",
					"name": "_tokenId",
					"type": "uint256"
				}
			],
			"name": "cancelBid",
			"outputs": [],
			"stateMutability": "nonpayable",
			"type": "function"
		},
		{
			"inputs": [
				{
					"internalType": "address",
					"name": "_originContract",
					"type": "address"
				},
				{
					"internalType": "uint256",
					"name": "_tokenId",
					"type": "uint256"
				}
			],
			"name": "currentBidDetailsOfToken",
			"outputs": [
				{
					"internalType": "uint256",
					"name": "",
					"type": "uint256"
				},
				{
					"internalType": "address",
					"name": "",
					"type": "address"
				}
			],
			"stateMutability": "view",
			"type": "function"
		},
		{
			"inputs": [],
			"name": "iERC721CreatorRoyalty",
			"outputs": [
				{
					"internalType": "contract IERC721CreatorRoyalty",
					"name": "",
					"type": "address"
				}
			],
			"stateMutability": "view",
			"type": "function"
		},
		{
			"inputs": [],
			"name": "iMarketplaceSettings",
			"outputs": [
				{
					"internalType": "contract IMarketplaceSettings",
					"name": "",
					"type": "address"
				}
			],
			"stateMutability": "view",
			"type": "function"
		},
		{
			"inputs": [],
			"name": "minimumBidIncreasePercentage",
			"outputs": [
				{
					"internalType": "uint8",
					"name": "",
					"type": "uint8"
				}
			],
			"stateMutability": "view",
			"type": "function"
		},
		{
			"inputs": [],
			"name": "owner",
			"outputs": [
				{
					"internalType": "address",
					"name": "",
					"type": "address"
				}
			],
			"stateMutability": "view",
			"type": "function"
		},
		{
			"inputs": [
				{
					"internalType": "address",
					"name": "dest",
					"type": "address"
				}
			],
			"name": "payments",
			"outputs": [
				{
					"internalType": "uint256",
					"name": "",
					"type": "uint256"
				}
			],
			"stateMutability": "view",
			"type": "function"
		},
		{
			"inputs": [],
			"name": "renounceOwnership",
			"outputs": [],
			"stateMutability": "nonpayable",
			"type": "function"
		},
		{
			"inputs": [
				{
					"internalType": "address",
					"name": "_originContract",
					"type": "address"
				},
				{
					"internalType": "uint256",
					"name": "_tokenId",
					"type": "uint256"
				},
				{
					"internalType": "uint256",
					"name": "_amount",
					"type": "uint256"
				}
			],
			"name": "safeAcceptBid",
			"outputs": [],
			"stateMutability": "nonpayable",
			"type": "function"
		},
		{
			"inputs": [
				{
					"internalType": "address",
					"name": "_originContract",
					"type": "address"
				},
				{
					"internalType": "uint256",
					"name": "_tokenId",
					"type": "uint256"
				},
				{
					"internalType": "uint256",
					"name": "_amount",
					"type": "uint256"
				}
			],
			"name": "safeBuy",
			"outputs": [],
			"stateMutability": "payable",
			"type": "function"
		},
		{
			"inputs": [
				{
					"internalType": "address",
					"name": "_address",
					"type": "address"
				}
			],
			"name": "setIERC721CreatorRoyalty",
			"outputs": [],
			"stateMutability": "nonpayable",
			"type": "function"
		},
		{
			"inputs": [
				{
					"internalType": "address",
					"name": "_address",
					"type": "address"
				}
			],
			"name": "setMarketplaceSettings",
			"outputs": [],
			"stateMutability": "nonpayable",
			"type": "function"
		},
		{
			"inputs": [
				{
					"internalType": "uint8",
					"name": "_percentage",
					"type": "uint8"
				}
			],
			"name": "setMinimumBidIncreasePercentage",
			"outputs": [],
			"stateMutability": "nonpayable",
			"type": "function"
		},
		{
			"inputs": [
				{
					"internalType": "address",
					"name": "_originContract",
					"type": "address"
				},
				{
					"internalType": "uint256",
					"name": "_tokenId",
					"type": "uint256"
				},
				{
					"internalType": "uint256",
					"name": "_amount",
					"type": "uint256"
				}
			],
			"name": "setSalePrice",
			"outputs": [],
			"stateMutability": "nonpayable",
			"type": "function"
		},
		{
			"inputs": [
				{
					"internalType": "address",
					"name": "_originContract",
					"type": "address"
				},
				{
					"internalType": "uint256",
					"name": "_tokenId",
					"type": "uint256"
				}
			],
			"name": "tokenPrice",
			"outputs": [
				{
					"internalType": "uint256",
					"name": "",
					"type": "uint256"
				}
			],
			"stateMutability": "view",
			"type": "function"
		},
		{
			"inputs": [
				{
					"internalType": "address",
					"name": "_originContract",
					"type": "address"
				},
				{
					"internalType": "uint256",
					"name": "_tokenId",
					"type": "uint256"
				}
			],
			"name": "tokenPriceFeeIncluded",
			"outputs": [
				{
					"internalType": "uint256",
					"name": "",
					"type": "uint256"
				}
			],
			"stateMutability": "view",
			"type": "function"
		},
		{
			"inputs": [
				{
					"internalType": "address",
					"name": "newOwner",
					"type": "address"
				}
			],
			"name": "transferOwnership",
			"outputs": [],
			"stateMutability": "nonpayable",
			"type": "function"
		},
		{
			"inputs": [
				{
					"internalType": "address payable",
					"name": "payee",
					"type": "address"
				}
			],
			"name": "withdrawPayments",
			"outputs": [],
			"stateMutability": "nonpayable",
			"type": "function"
		}
	]
}